{
  "contractName": "CryptoZombies",
  "abi": [
    {
      "anonymous": false,
      "inputs": [
        {
          "indexed": true,
          "internalType": "address",
          "name": "_owner",
          "type": "address"
        },
        {
          "indexed": true,
          "internalType": "address",
          "name": "_approved",
          "type": "address"
        },
        {
          "indexed": true,
          "internalType": "uint256",
          "name": "_tokenId",
          "type": "uint256"
        }
      ],
      "name": "Approval",
      "type": "event"
    },
    {
      "anonymous": false,
      "inputs": [
        {
          "indexed": false,
          "internalType": "uint256",
          "name": "zombieId",
          "type": "uint256"
        },
        {
          "indexed": false,
          "internalType": "string",
          "name": "name",
          "type": "string"
        },
        {
          "indexed": false,
          "internalType": "uint256",
          "name": "dna",
          "type": "uint256"
        }
      ],
      "name": "NewZombie",
      "type": "event"
    },
    {
      "anonymous": false,
      "inputs": [
        {
          "indexed": true,
          "internalType": "address",
          "name": "previousOwner",
          "type": "address"
        },
        {
          "indexed": true,
          "internalType": "address",
          "name": "newOwner",
          "type": "address"
        }
      ],
      "name": "OwnershipTransferred",
      "type": "event"
    },
    {
      "anonymous": false,
      "inputs": [
        {
          "indexed": true,
          "internalType": "address",
          "name": "_from",
          "type": "address"
        },
        {
          "indexed": true,
          "internalType": "address",
          "name": "_to",
          "type": "address"
        },
        {
          "indexed": true,
          "internalType": "uint256",
          "name": "_tokenId",
          "type": "uint256"
        }
      ],
      "name": "Transfer",
      "type": "event"
    },
    {
      "inputs": [
        {
          "internalType": "address",
          "name": "_approved",
          "type": "address"
        },
        {
          "internalType": "uint256",
          "name": "_tokenId",
          "type": "uint256"
        }
      ],
      "name": "approve",
      "outputs": [],
      "stateMutability": "payable",
      "type": "function",
      "payable": true
    },
    {
      "inputs": [
        {
          "internalType": "uint256",
          "name": "_zombieId",
          "type": "uint256"
        },
        {
          "internalType": "uint256",
          "name": "_targetId",
          "type": "uint256"
        }
      ],
      "name": "attack",
      "outputs": [],
      "stateMutability": "nonpayable",
      "type": "function"
    },
    {
      "inputs": [
        {
          "internalType": "address",
          "name": "_owner",
          "type": "address"
        }
      ],
      "name": "balanceOf",
      "outputs": [
        {
          "internalType": "uint256",
          "name": "",
          "type": "uint256"
        }
      ],
      "stateMutability": "view",
      "type": "function",
      "constant": true
    },
    {
      "inputs": [
        {
          "internalType": "uint256",
          "name": "_zombieId",
          "type": "uint256"
        },
        {
          "internalType": "uint256",
          "name": "_newDna",
          "type": "uint256"
        }
      ],
      "name": "changeDna",
      "outputs": [],
      "stateMutability": "nonpayable",
      "type": "function"
    },
    {
      "inputs": [
        {
          "internalType": "uint256",
          "name": "_zombieId",
          "type": "uint256"
        },
        {
          "internalType": "string",
          "name": "_newName",
          "type": "string"
        }
      ],
      "name": "changeName",
      "outputs": [],
      "stateMutability": "nonpayable",
      "type": "function"
    },
    {
      "inputs": [
        {
          "internalType": "string",
          "name": "_name",
          "type": "string"
        }
      ],
      "name": "createRandomZombie",
      "outputs": [],
      "stateMutability": "nonpayable",
      "type": "function"
    },
    {
      "inputs": [
        {
          "internalType": "uint256",
          "name": "_zombieId",
          "type": "uint256"
        },
        {
          "internalType": "uint256",
          "name": "_kittyId",
          "type": "uint256"
        }
      ],
      "name": "feedOnKitty",
      "outputs": [],
      "stateMutability": "nonpayable",
      "type": "function"
    },
    {
      "inputs": [
        {
          "internalType": "address",
          "name": "_owner",
          "type": "address"
        }
      ],
      "name": "getZombiesByOwner",
      "outputs": [
        {
          "internalType": "uint256[]",
          "name": "",
          "type": "uint256[]"
        }
      ],
      "stateMutability": "view",
      "type": "function",
      "constant": true
    },
    {
      "inputs": [],
      "name": "isOwner",
      "outputs": [
        {
          "internalType": "bool",
          "name": "",
          "type": "bool"
        }
      ],
      "stateMutability": "view",
      "type": "function",
      "constant": true
    },
    {
      "inputs": [
        {
          "internalType": "uint256",
          "name": "_zombieId",
          "type": "uint256"
        }
      ],
      "name": "levelUp",
      "outputs": [],
      "stateMutability": "payable",
      "type": "function",
      "payable": true
    },
    {
      "inputs": [],
      "name": "owner",
      "outputs": [
        {
          "internalType": "address",
          "name": "",
          "type": "address"
        }
      ],
      "stateMutability": "view",
      "type": "function",
      "constant": true
    },
    {
      "inputs": [
        {
          "internalType": "uint256",
          "name": "_tokenId",
          "type": "uint256"
        }
      ],
      "name": "ownerOf",
      "outputs": [
        {
          "internalType": "address",
          "name": "",
          "type": "address"
        }
      ],
      "stateMutability": "view",
      "type": "function",
      "constant": true
    },
    {
      "inputs": [
        {
          "internalType": "address",
          "name": "",
          "type": "address"
        }
      ],
      "name": "ownerZombieCount",
      "outputs": [
        {
          "internalType": "uint256",
          "name": "",
          "type": "uint256"
        }
      ],
      "stateMutability": "view",
      "type": "function",
      "constant": true
    },
    {
      "inputs": [],
      "name": "renounceOwnership",
      "outputs": [],
      "stateMutability": "nonpayable",
      "type": "function"
    },
    {
      "inputs": [
        {
          "internalType": "address",
          "name": "_address",
          "type": "address"
        }
      ],
      "name": "setKittyContractAddress",
      "outputs": [],
      "stateMutability": "nonpayable",
      "type": "function"
    },
    {
      "inputs": [
        {
          "internalType": "uint256",
          "name": "_fee",
          "type": "uint256"
        }
      ],
      "name": "setLevelUpFee",
      "outputs": [],
      "stateMutability": "nonpayable",
      "type": "function"
    },
    {
      "inputs": [
        {
          "internalType": "address",
          "name": "_from",
          "type": "address"
        },
        {
          "internalType": "address",
          "name": "_to",
          "type": "address"
        },
        {
          "internalType": "uint256",
          "name": "_tokenId",
          "type": "uint256"
        }
      ],
      "name": "transferFrom",
      "outputs": [],
      "stateMutability": "nonpayable",
      "type": "function"
    },
    {
      "inputs": [
        {
          "internalType": "address",
          "name": "newOwner",
          "type": "address"
        }
      ],
      "name": "transferOwnership",
      "outputs": [],
      "stateMutability": "nonpayable",
      "type": "function"
    },
    {
      "inputs": [],
      "name": "withdraw",
      "outputs": [],
      "stateMutability": "nonpayable",
      "type": "function"
    },
    {
      "inputs": [
        {
          "internalType": "uint256",
          "name": "",
          "type": "uint256"
        }
      ],
      "name": "zombieToOwner",
      "outputs": [
        {
          "internalType": "address",
          "name": "",
          "type": "address"
        }
      ],
      "stateMutability": "view",
      "type": "function",
      "constant": true
    },
    {
      "inputs": [
        {
          "internalType": "uint256",
          "name": "",
          "type": "uint256"
        }
      ],
      "name": "zombies",
      "outputs": [
        {
          "internalType": "string",
          "name": "name",
          "type": "string"
        },
        {
          "internalType": "uint256",
          "name": "dna",
          "type": "uint256"
        },
        {
          "internalType": "uint32",
          "name": "level",
          "type": "uint32"
        },
        {
          "internalType": "uint32",
          "name": "readyTime",
          "type": "uint32"
        },
        {
          "internalType": "uint16",
          "name": "winCount",
          "type": "uint16"
        },
        {
          "internalType": "uint16",
          "name": "lossCount",
          "type": "uint16"
        }
      ],
      "stateMutability": "view",
      "type": "function",
      "constant": true
    }
  ],
  "bytecode": "0x60806040526010600155600154600a6200001a919062000295565b6002556201518060035566038d7ea4c6800060085560006009556046600a553480156200004657600080fd5b50336000806101000a81548173ffffffffffffffffffffffffffffffffffffffff021916908373ffffffffffffffffffffffffffffffffffffffff16021790555060008054906101000a900473ffffffffffffffffffffffffffffffffffffffff1673ffffffffffffffffffffffffffffffffffffffff16600073ffffffffffffffffffffffffffffffffffffffff167f8be0079c531659141344cd1fd0a4f28419497f9722a3daafe3b4186f6b6457e060405160405180910390a3620002e6565b7f4e487b7100000000000000000000000000000000000000000000000000000000600052601160045260246000fd5b60008160011c9050919050565b6000808291508390505b600185111562000196578086048111156200016e576200016d62000108565b5b60018516156200017e5780820291505b80810290506200018e8562000137565b94506200014e565b94509492505050565b600082620001b1576001905062000284565b81620001c1576000905062000284565b8160018114620001da5760028114620001e5576200021b565b600191505062000284565b60ff841115620001fa57620001f962000108565b5b8360020a91508482111562000214576200021362000108565b5b5062000284565b5060208310610133831016604e8410600b8410161715620002555782820a9050838111156200024f576200024e62000108565b5b62000284565b62000264848484600162000144565b925090508184048111156200027e576200027d62000108565b5b81810290505b9392505050565b6000819050919050565b6000620002a2826200028b565b9150620002af836200028b565b9250620002de7fffffffffffffffffffffffffffffffffffffffffffffffffffffffffffffffff84846200019f565b905092915050565b6126f780620002f66000396000f3fe60806040526004361061012a5760003560e01c80635faf2880116100ab5780638da5cb5b1161006f5780638da5cb5b146103d55780638f32d59b14610400578063c39cbef11461042b578063ccf670f814610454578063e1fa76381461047d578063f2fde38b146104a65761012a565b80635faf2880146102f25780636352211e1461031b57806370a0823114610358578063715018a6146103955780637bff0a01146103ac5761012a565b806323b872dd116100f257806323b872dd1461020f5780633ccfd60b146102385780634412e1041461024f578063528b7b8f1461028c5780635f4623f1146102c95761012a565b806301afd7e11461012f578063095ea7b31461016c5780630ce90ec21461018857806317a7f4cc146101a45780632052465e146101cd575b600080fd5b34801561013b57600080fd5b5061015660048036038101906101519190611b1c565b6104cf565b6040516101639190611b62565b60405180910390f35b61018660048036038101906101819190611ba9565b6104e7565b005b6101a2600480360381019061019d9190611be9565b610605565b005b3480156101b057600080fd5b506101cb60048036038101906101c69190611c16565b61067a565b005b3480156101d957600080fd5b506101f460048036038101906101ef9190611be9565b610798565b60405161020696959493929190611d2b565b60405180910390f35b34801561021b57600080fd5b5061023660048036038101906102319190611d93565b6108a8565b005b34801561024457600080fd5b5061024d61098c565b005b34801561025b57600080fd5b5061027660048036038101906102719190611b1c565b6109f3565b6040516102839190611ea4565b60405180910390f35b34801561029857600080fd5b506102b360048036038101906102ae9190611be9565b610b46565b6040516102c09190611ed5565b60405180910390f35b3480156102d557600080fd5b506102f060048036038101906102eb9190611b1c565b610b79565b005b3480156102fe57600080fd5b5061031960048036038101906103149190611c16565b610bce565b005b34801561032757600080fd5b50610342600480360381019061033d9190611be9565b610cb6565b60405161034f9190611ed5565b60405180910390f35b34801561036457600080fd5b5061037f600480360381019061037a9190611b1c565b610cf3565b60405161038c9190611b62565b60405180910390f35b3480156103a157600080fd5b506103aa610d3c565b005b3480156103b857600080fd5b506103d360048036038101906103ce9190612025565b610e0b565b005b3480156103e157600080fd5b506103ea610e8c565b6040516103f79190611ed5565b60405180910390f35b34801561040c57600080fd5b50610415610eb5565b6040516104229190612089565b60405180910390f35b34801561043757600080fd5b50610452600480360381019061044d9190612104565b610f0c565b005b34801561046057600080fd5b5061047b60048036038101906104769190611be9565b611000565b005b34801561048957600080fd5b506104a4600480360381019061049f9190611c16565b61101b565b005b3480156104b257600080fd5b506104cd60048036038101906104c89190611b1c565b61127c565b005b60066020528060005260406000206000915090505481565b806005600082815260200190815260200160002060009054906101000a900473ffffffffffffffffffffffffffffffffffffffff1673ffffffffffffffffffffffffffffffffffffffff163373ffffffffffffffffffffffffffffffffffffffff161461055357600080fd5b82600b600084815260200190815260200160002060006101000a81548173ffffffffffffffffffffffffffffffffffffffff021916908373ffffffffffffffffffffffffffffffffffffffff160217905550818373ffffffffffffffffffffffffffffffffffffffff163373ffffffffffffffffffffffffffffffffffffffff167f8c5be1e5ebec7d5bd14f71427d1e84f3dd0314c0f7b2291e5b200ac8c7c3b92560405160405180910390a4505050565b600854341461061357600080fd5b6004818154811061062757610626612164565b5b9060005260206000209060030201600201600081819054906101000a900463ffffffff1680929190610658906121c2565b91906101000a81548163ffffffff021916908363ffffffff1602179055505050565b6000600760009054906101000a900473ffffffffffffffffffffffffffffffffffffffff1673ffffffffffffffffffffffffffffffffffffffff1663e98b7f4d836040518263ffffffff1660e01b81526004016106d79190611b62565b61014060405180830381865afa1580156106f5573d6000803e3d6000fd5b505050506040513d601f19601f820116820180604052508101906107199190612230565b9091929394959697985090919293949596975090919293949596509091929394955090919293945090919293509091925090915090508091505061079383826040518060400160405280600581526020017f6b69747479000000000000000000000000000000000000000000000000000000815250611299565b505050565b600481815481106107a857600080fd5b90600052602060002090600302016000915090508060000180546107cb9061233e565b80601f01602080910402602001604051908101604052809291908181526020018280546107f79061233e565b80156108445780601f1061081957610100808354040283529160200191610844565b820191906000526020600020905b81548152906001019060200180831161082757829003601f168201915b5050505050908060010154908060020160009054906101000a900463ffffffff16908060020160049054906101000a900463ffffffff16908060020160089054906101000a900461ffff169080600201600a9054906101000a900461ffff16905086565b3373ffffffffffffffffffffffffffffffffffffffff166005600083815260200190815260200160002060009054906101000a900473ffffffffffffffffffffffffffffffffffffffff1673ffffffffffffffffffffffffffffffffffffffff16148061097357503373ffffffffffffffffffffffffffffffffffffffff16600b600083815260200190815260200160002060009054906101000a900473ffffffffffffffffffffffffffffffffffffffff1673ffffffffffffffffffffffffffffffffffffffff16145b61097c57600080fd5b610987838383611424565b505050565b610994610eb5565b61099d57600080fd5b60006109a7610e8c565b90508073ffffffffffffffffffffffffffffffffffffffff166108fc479081150290604051600060405180830381858888f193505050501580156109ef573d6000803e3d6000fd5b5050565b60606000600660008473ffffffffffffffffffffffffffffffffffffffff1673ffffffffffffffffffffffffffffffffffffffff1681526020019081526020016000205467ffffffffffffffff811115610a5057610a4f611efa565b5b604051908082528060200260200182016040528015610a7e5781602001602082028036833780820191505090505b5090506000805b600480549050811015610b3b578473ffffffffffffffffffffffffffffffffffffffff166005600083815260200190815260200160002060009054906101000a900473ffffffffffffffffffffffffffffffffffffffff1673ffffffffffffffffffffffffffffffffffffffff161415610b285780838381518110610b0d57610b0c612164565b5b6020026020010181815250508180610b2490612370565b9250505b8080610b3390612370565b915050610a85565b508192505050919050565b60056020528060005260406000206000915054906101000a900473ffffffffffffffffffffffffffffffffffffffff1681565b610b81610eb5565b610b8a57600080fd5b80600760006101000a81548173ffffffffffffffffffffffffffffffffffffffff021916908373ffffffffffffffffffffffffffffffffffffffff16021790555050565b6014828160048281548110610be657610be5612164565b5b906000526020600020906003020160020160009054906101000a900463ffffffff1663ffffffff161015610c1957600080fd5b836005600082815260200190815260200160002060009054906101000a900473ffffffffffffffffffffffffffffffffffffffff1673ffffffffffffffffffffffffffffffffffffffff163373ffffffffffffffffffffffffffffffffffffffff1614610c8557600080fd5b8360048681548110610c9a57610c99612164565b5b9060005260206000209060030201600101819055505050505050565b60006005600083815260200190815260200160002060009054906101000a900473ffffffffffffffffffffffffffffffffffffffff169050919050565b6000600660008373ffffffffffffffffffffffffffffffffffffffff1673ffffffffffffffffffffffffffffffffffffffff168152602001908152602001600020549050919050565b610d44610eb5565b610d4d57600080fd5b600073ffffffffffffffffffffffffffffffffffffffff1660008054906101000a900473ffffffffffffffffffffffffffffffffffffffff1673ffffffffffffffffffffffffffffffffffffffff167f8be0079c531659141344cd1fd0a4f28419497f9722a3daafe3b4186f6b6457e060405160405180910390a360008060006101000a81548173ffffffffffffffffffffffffffffffffffffffff021916908373ffffffffffffffffffffffffffffffffffffffff160217905550565b6000600660003373ffffffffffffffffffffffffffffffffffffffff1673ffffffffffffffffffffffffffffffffffffffff1681526020019081526020016000205414610e5757600080fd5b6000610e6282611580565b9050606481610e7191906123e8565b81610e7c9190612419565b9050610e8882826115c5565b5050565b60008060009054906101000a900473ffffffffffffffffffffffffffffffffffffffff16905090565b60008060009054906101000a900473ffffffffffffffffffffffffffffffffffffffff1673ffffffffffffffffffffffffffffffffffffffff163373ffffffffffffffffffffffffffffffffffffffff1614905090565b6002838160048281548110610f2457610f23612164565b5b906000526020600020906003020160020160009054906101000a900463ffffffff1663ffffffff161015610f5757600080fd5b846005600082815260200190815260200160002060009054906101000a900473ffffffffffffffffffffffffffffffffffffffff1673ffffffffffffffffffffffffffffffffffffffff163373ffffffffffffffffffffffffffffffffffffffff1614610fc357600080fd5b848460048881548110610fd957610fd8612164565b5b90600052602060002090600302016000019190610ff7929190611981565b50505050505050565b611008610eb5565b61101157600080fd5b8060088190555050565b816005600082815260200190815260200160002060009054906101000a900473ffffffffffffffffffffffffffffffffffffffff1673ffffffffffffffffffffffffffffffffffffffff163373ffffffffffffffffffffffffffffffffffffffff161461108757600080fd5b60006004848154811061109d5761109c612164565b5b906000526020600020906003020190506000600484815481106110c3576110c2612164565b5b9060005260206000209060030201905060006110df60646117fb565b9050600a5481116111f05782600201600881819054906101000a900461ffff168092919061110c9061244d565b91906101000a81548161ffff021916908361ffff1602179055505082600201600081819054906101000a900463ffffffff168092919061114b906121c2565b91906101000a81548163ffffffff021916908363ffffffff1602179055505081600201600a81819054906101000a900461ffff168092919061118c9061244d565b91906101000a81548161ffff021916908361ffff160217905550506111eb8683600101546040518060400160405280600681526020017f7a6f6d6269650000000000000000000000000000000000000000000000000000815250611299565b611274565b82600201600a81819054906101000a900461ffff16809291906112129061244d565b91906101000a81548161ffff021916908361ffff1602179055505081600201600881819054906101000a900461ffff168092919061124f9061244d565b91906101000a81548161ffff021916908361ffff1602179055505061127383611857565b5b505050505050565b611284610eb5565b61128d57600080fd5b6112968161188a565b50565b826005600082815260200190815260200160002060009054906101000a900473ffffffffffffffffffffffffffffffffffffffff1673ffffffffffffffffffffffffffffffffffffffff163373ffffffffffffffffffffffffffffffffffffffff161461130557600080fd5b60006004858154811061131b5761131a612164565b5b906000526020600020906003020190506002548461133991906123e8565b93506000600285836001015461134f9190612478565b61135991906124ce565b905060405160200161136a90612556565b6040516020818303038152906040528051906020012084604051602001611391919061259c565b6040516020818303038152906040528051906020012014156113d45760636064826113bc91906123e8565b6113c69190612478565b816113d19190612419565b90505b6114136040518060400160405280600681526020017f4e6f4e616d650000000000000000000000000000000000000000000000000000815250826115c5565b61141c82611857565b505050505050565b600660008373ffffffffffffffffffffffffffffffffffffffff1673ffffffffffffffffffffffffffffffffffffffff168152602001908152602001600020600081548092919061147490612370565b9190505550600660008473ffffffffffffffffffffffffffffffffffffffff1673ffffffffffffffffffffffffffffffffffffffff16815260200190815260200160002060008154809291906114c9906125b3565b9190505550816005600083815260200190815260200160002060006101000a81548173ffffffffffffffffffffffffffffffffffffffff021916908373ffffffffffffffffffffffffffffffffffffffff160217905550808273ffffffffffffffffffffffffffffffffffffffff168473ffffffffffffffffffffffffffffffffffffffff167fddf252ad1be2c89b69c2b068fc378daa952ba7f163c4a11628f55a4df523b3ef60405160405180910390a4505050565b60008082604051602001611594919061259c565b6040516020818303038152906040528051906020012060001c9050600254816115bd91906123e8565b915050919050565b60046040518060c00160405280848152602001838152602001600163ffffffff168152602001600354426115f99190612478565b63ffffffff168152602001600061ffff168152602001600061ffff168152509080600181540180825580915050600190039060005260206000209060030201600090919091909150600082015181600001908051906020019061165d929190611a07565b506020820151816001015560408201518160020160006101000a81548163ffffffff021916908363ffffffff16021790555060608201518160020160046101000a81548163ffffffff021916908363ffffffff16021790555060808201518160020160086101000a81548161ffff021916908361ffff16021790555060a082015181600201600a6101000a81548161ffff021916908361ffff1602179055505050600060016004805490506117129190612419565b9050336005600083815260200190815260200160002060006101000a81548173ffffffffffffffffffffffffffffffffffffffff021916908373ffffffffffffffffffffffffffffffffffffffff160217905550600660003373ffffffffffffffffffffffffffffffffffffffff1673ffffffffffffffffffffffffffffffffffffffff16815260200190815260200160002060008154809291906117b690612370565b91905055507f88f026aacbbecc90c18411df4b1185fd8d9be2470f1962f192bf84a27d0704b78184846040516117ee939291906125dd565b60405180910390a1505050565b60006009600081548092919061181090612370565b919050555081423360095460405160200161182d93929190612684565b6040516020818303038152906040528051906020012060001c61185091906123e8565b9050919050565b600354426118659190612478565b8160020160046101000a81548163ffffffff021916908363ffffffff16021790555050565b600073ffffffffffffffffffffffffffffffffffffffff168173ffffffffffffffffffffffffffffffffffffffff1614156118c457600080fd5b8073ffffffffffffffffffffffffffffffffffffffff1660008054906101000a900473ffffffffffffffffffffffffffffffffffffffff1673ffffffffffffffffffffffffffffffffffffffff167f8be0079c531659141344cd1fd0a4f28419497f9722a3daafe3b4186f6b6457e060405160405180910390a3806000806101000a81548173ffffffffffffffffffffffffffffffffffffffff021916908373ffffffffffffffffffffffffffffffffffffffff16021790555050565b82805461198d9061233e565b90600052602060002090601f0160209004810192826119af57600085556119f6565b82601f106119c857803560ff19168380011785556119f6565b828001600101855582156119f6579182015b828111156119f55782358255916020019190600101906119da565b5b509050611a039190611a8d565b5090565b828054611a139061233e565b90600052602060002090601f016020900481019282611a355760008555611a7c565b82601f10611a4e57805160ff1916838001178555611a7c565b82800160010185558215611a7c579182015b82811115611a7b578251825591602001919060010190611a60565b5b509050611a899190611a8d565b5090565b5b80821115611aa6576000816000905550600101611a8e565b5090565b6000604051905090565b600080fd5b600080fd5b600073ffffffffffffffffffffffffffffffffffffffff82169050919050565b6000611ae982611abe565b9050919050565b611af981611ade565b8114611b0457600080fd5b50565b600081359050611b1681611af0565b92915050565b600060208284031215611b3257611b31611ab4565b5b6000611b4084828501611b07565b91505092915050565b6000819050919050565b611b5c81611b49565b82525050565b6000602082019050611b776000830184611b53565b92915050565b611b8681611b49565b8114611b9157600080fd5b50565b600081359050611ba381611b7d565b92915050565b60008060408385031215611bc057611bbf611ab4565b5b6000611bce85828601611b07565b9250506020611bdf85828601611b94565b9150509250929050565b600060208284031215611bff57611bfe611ab4565b5b6000611c0d84828501611b94565b91505092915050565b60008060408385031215611c2d57611c2c611ab4565b5b6000611c3b85828601611b94565b9250506020611c4c85828601611b94565b9150509250929050565b600081519050919050565b600082825260208201905092915050565b60005b83811015611c90578082015181840152602081019050611c75565b83811115611c9f576000848401525b50505050565b6000601f19601f8301169050919050565b6000611cc182611c56565b611ccb8185611c61565b9350611cdb818560208601611c72565b611ce481611ca5565b840191505092915050565b600063ffffffff82169050919050565b611d0881611cef565b82525050565b600061ffff82169050919050565b611d2581611d0e565b82525050565b600060c0820190508181036000830152611d458189611cb6565b9050611d546020830188611b53565b611d616040830187611cff565b611d6e6060830186611cff565b611d7b6080830185611d1c565b611d8860a0830184611d1c565b979650505050505050565b600080600060608486031215611dac57611dab611ab4565b5b6000611dba86828701611b07565b9350506020611dcb86828701611b07565b9250506040611ddc86828701611b94565b9150509250925092565b600081519050919050565b600082825260208201905092915050565b6000819050602082019050919050565b611e1b81611b49565b82525050565b6000611e2d8383611e12565b60208301905092915050565b6000602082019050919050565b6000611e5182611de6565b611e5b8185611df1565b9350611e6683611e02565b8060005b83811015611e97578151611e7e8882611e21565b9750611e8983611e39565b925050600181019050611e6a565b5085935050505092915050565b60006020820190508181036000830152611ebe8184611e46565b905092915050565b611ecf81611ade565b82525050565b6000602082019050611eea6000830184611ec6565b92915050565b600080fd5b600080fd5b7f4e487b7100000000000000000000000000000000000000000000000000000000600052604160045260246000fd5b611f3282611ca5565b810181811067ffffffffffffffff82111715611f5157611f50611efa565b5b80604052505050565b6000611f64611aaa565b9050611f708282611f29565b919050565b600067ffffffffffffffff821115611f9057611f8f611efa565b5b611f9982611ca5565b9050602081019050919050565b82818337600083830152505050565b6000611fc8611fc384611f75565b611f5a565b905082815260208101848484011115611fe457611fe3611ef5565b5b611fef848285611fa6565b509392505050565b600082601f83011261200c5761200b611ef0565b5b813561201c848260208601611fb5565b91505092915050565b60006020828403121561203b5761203a611ab4565b5b600082013567ffffffffffffffff81111561205957612058611ab9565b5b61206584828501611ff7565b91505092915050565b60008115159050919050565b6120838161206e565b82525050565b600060208201905061209e600083018461207a565b92915050565b600080fd5b600080fd5b60008083601f8401126120c4576120c3611ef0565b5b8235905067ffffffffffffffff8111156120e1576120e06120a4565b5b6020830191508360018202830111156120fd576120fc6120a9565b5b9250929050565b60008060006040848603121561211d5761211c611ab4565b5b600061212b86828701611b94565b935050602084013567ffffffffffffffff81111561214c5761214b611ab9565b5b612158868287016120ae565b92509250509250925092565b7f4e487b7100000000000000000000000000000000000000000000000000000000600052603260045260246000fd5b7f4e487b7100000000000000000000000000000000000000000000000000000000600052601160045260246000fd5b60006121cd82611cef565b915063ffffffff8214156121e4576121e3612193565b5b600182019050919050565b6121f88161206e565b811461220357600080fd5b50565b600081519050612215816121ef565b92915050565b60008151905061222a81611b7d565b92915050565b6000806000806000806000806000806101408b8d03121561225457612253611ab4565b5b60006122628d828e01612206565b9a505060206122738d828e01612206565b99505060406122848d828e0161221b565b98505060606122958d828e0161221b565b97505060806122a68d828e0161221b565b96505060a06122b78d828e0161221b565b95505060c06122c88d828e0161221b565b94505060e06122d98d828e0161221b565b9350506101006122eb8d828e0161221b565b9250506101206122fd8d828e0161221b565b9150509295989b9194979a5092959850565b7f4e487b7100000000000000000000000000000000000000000000000000000000600052602260045260246000fd5b6000600282049050600182168061235657607f821691505b6020821081141561236a5761236961230f565b5b50919050565b600061237b82611b49565b91507fffffffffffffffffffffffffffffffffffffffffffffffffffffffffffffffff8214156123ae576123ad612193565b5b600182019050919050565b7f4e487b7100000000000000000000000000000000000000000000000000000000600052601260045260246000fd5b60006123f382611b49565b91506123fe83611b49565b92508261240e5761240d6123b9565b5b828206905092915050565b600061242482611b49565b915061242f83611b49565b92508282101561244257612441612193565b5b828203905092915050565b600061245882611d0e565b915061ffff82141561246d5761246c612193565b5b600182019050919050565b600061248382611b49565b915061248e83611b49565b9250827fffffffffffffffffffffffffffffffffffffffffffffffffffffffffffffffff038211156124c3576124c2612193565b5b828201905092915050565b60006124d982611b49565b91506124e483611b49565b9250826124f4576124f36123b9565b5b828204905092915050565b600081905092915050565b7f6b69747479000000000000000000000000000000000000000000000000000000600082015250565b60006125406005836124ff565b915061254b8261250a565b600582019050919050565b600061256182612533565b9150819050919050565b600061257682611c56565b61258081856124ff565b9350612590818560208601611c72565b80840191505092915050565b60006125a8828461256b565b915081905092915050565b60006125be82611b49565b915060008214156125d2576125d1612193565b5b600182039050919050565b60006060820190506125f26000830186611b53565b81810360208301526126048185611cb6565b90506126136040830184611b53565b949350505050565b6000819050919050565b61263661263182611b49565b61261b565b82525050565b60008160601b9050919050565b60006126548261263c565b9050919050565b600061266682612649565b9050919050565b61267e61267982611ade565b61265b565b82525050565b60006126908286612625565b6020820191506126a0828561266d565b6014820191506126b08284612625565b60208201915081905094935050505056fea26469706673582212201dc0335ee812ac07489925bb21b66ae2e201d1595c2e0777cbec9f1f58cbd56f64736f6c634300080a0033",
  "immutableReferences": {},
  "source": "// SPDX-License-Identifier: MIT\npragma solidity >=0.7.0 <0.9.0;\n\nimport \"./zombieownership.sol\";\n\ncontract CryptoZombies is ZombieOwnership {\n\n}",
  "sourcePath": "/Users/JordanSun/Desktop/CryptoZombies/src/contracts/cryptozombies.sol",
  "compiler": {
    "name": "solc",
    "version": "0.8.10+commit.fc410830.Emscripten.clang"
  },
  "schemaVersion": "3.4.1",
  "updatedAt": "2021-12-02T21:53:53.425Z",
  "networkType": "ethereum",
  "devdoc": {
    "kind": "dev",
    "methods": {
      "isOwner()": {
        "returns": {
          "_0": "true if `msg.sender` is the owner of the contract."
        }
      },
      "owner()": {
        "returns": {
          "_0": "the address of the owner."
        }
      },
      "renounceOwnership()": {
        "details": "Allows the current owner to relinquish control of the contract."
      },
      "transferOwnership(address)": {
        "details": "Allows the current owner to transfer control of the contract to a newOwner.",
        "params": {
          "newOwner": "The address to transfer ownership to."
        }
      }
    },
    "version": 1
  },
  "userdoc": {
    "kind": "user",
    "methods": {
      "renounceOwnership()": {
        "notice": "Renouncing to ownership will leave the contract without an owner. It will not be possible to call the functions with the `onlyOwner` modifier anymore."
      }
    },
    "version": 1
  }
}