{
  "contractName": "ZombieHelper",
  "abi": [
    {
      "anonymous": false,
      "inputs": [
        {
          "indexed": false,
          "internalType": "uint256",
          "name": "zombieId",
          "type": "uint256"
        },
        {
          "indexed": false,
          "internalType": "string",
          "name": "name",
          "type": "string"
        },
        {
          "indexed": false,
          "internalType": "uint256",
          "name": "dna",
          "type": "uint256"
        }
      ],
      "name": "NewZombie",
      "type": "event"
    },
    {
      "anonymous": false,
      "inputs": [
        {
          "indexed": true,
          "internalType": "address",
          "name": "previousOwner",
          "type": "address"
        },
        {
          "indexed": true,
          "internalType": "address",
          "name": "newOwner",
          "type": "address"
        }
      ],
      "name": "OwnershipTransferred",
      "type": "event"
    },
    {
      "inputs": [
        {
          "internalType": "string",
          "name": "_name",
          "type": "string"
        }
      ],
      "name": "createRandomZombie",
      "outputs": [],
      "stateMutability": "nonpayable",
      "type": "function"
    },
    {
      "inputs": [
        {
          "internalType": "uint256",
          "name": "_zombieId",
          "type": "uint256"
        },
        {
          "internalType": "uint256",
          "name": "_kittyId",
          "type": "uint256"
        }
      ],
      "name": "feedOnKitty",
      "outputs": [],
      "stateMutability": "nonpayable",
      "type": "function"
    },
    {
      "inputs": [],
      "name": "isOwner",
      "outputs": [
        {
          "internalType": "bool",
          "name": "",
          "type": "bool"
        }
      ],
      "stateMutability": "view",
      "type": "function"
    },
    {
      "inputs": [],
      "name": "owner",
      "outputs": [
        {
          "internalType": "address",
          "name": "",
          "type": "address"
        }
      ],
      "stateMutability": "view",
      "type": "function"
    },
    {
      "inputs": [
        {
          "internalType": "address",
          "name": "",
          "type": "address"
        }
      ],
      "name": "ownerZombieCount",
      "outputs": [
        {
          "internalType": "uint256",
          "name": "",
          "type": "uint256"
        }
      ],
      "stateMutability": "view",
      "type": "function"
    },
    {
      "inputs": [],
      "name": "renounceOwnership",
      "outputs": [],
      "stateMutability": "nonpayable",
      "type": "function"
    },
    {
      "inputs": [
        {
          "internalType": "address",
          "name": "_address",
          "type": "address"
        }
      ],
      "name": "setKittyContractAddress",
      "outputs": [],
      "stateMutability": "nonpayable",
      "type": "function"
    },
    {
      "inputs": [
        {
          "internalType": "address",
          "name": "newOwner",
          "type": "address"
        }
      ],
      "name": "transferOwnership",
      "outputs": [],
      "stateMutability": "nonpayable",
      "type": "function"
    },
    {
      "inputs": [
        {
          "internalType": "uint256",
          "name": "",
          "type": "uint256"
        }
      ],
      "name": "zombieToOwner",
      "outputs": [
        {
          "internalType": "address",
          "name": "",
          "type": "address"
        }
      ],
      "stateMutability": "view",
      "type": "function"
    },
    {
      "inputs": [
        {
          "internalType": "uint256",
          "name": "",
          "type": "uint256"
        }
      ],
      "name": "zombies",
      "outputs": [
        {
          "internalType": "string",
          "name": "name",
          "type": "string"
        },
        {
          "internalType": "uint256",
          "name": "dna",
          "type": "uint256"
        },
        {
          "internalType": "uint32",
          "name": "level",
          "type": "uint32"
        },
        {
          "internalType": "uint32",
          "name": "readyTime",
          "type": "uint32"
        },
        {
          "internalType": "uint16",
          "name": "winCount",
          "type": "uint16"
        },
        {
          "internalType": "uint16",
          "name": "lossCount",
          "type": "uint16"
        }
      ],
      "stateMutability": "view",
      "type": "function"
    },
    {
      "inputs": [],
      "name": "withdraw",
      "outputs": [],
      "stateMutability": "nonpayable",
      "type": "function"
    },
    {
      "inputs": [
        {
          "internalType": "uint256",
          "name": "_fee",
          "type": "uint256"
        }
      ],
      "name": "setLevelUpFee",
      "outputs": [],
      "stateMutability": "nonpayable",
      "type": "function"
    },
    {
      "inputs": [
        {
          "internalType": "uint256",
          "name": "_zombieId",
          "type": "uint256"
        }
      ],
      "name": "levelUp",
      "outputs": [],
      "stateMutability": "payable",
      "type": "function"
    },
    {
      "inputs": [
        {
          "internalType": "uint256",
          "name": "_zombieId",
          "type": "uint256"
        },
        {
          "internalType": "string",
          "name": "_newName",
          "type": "string"
        }
      ],
      "name": "changeName",
      "outputs": [],
      "stateMutability": "nonpayable",
      "type": "function"
    },
    {
      "inputs": [
        {
          "internalType": "uint256",
          "name": "_zombieId",
          "type": "uint256"
        },
        {
          "internalType": "uint256",
          "name": "_newDna",
          "type": "uint256"
        }
      ],
      "name": "changeDna",
      "outputs": [],
      "stateMutability": "nonpayable",
      "type": "function"
    },
    {
      "inputs": [
        {
          "internalType": "address",
          "name": "_owner",
          "type": "address"
        }
      ],
      "name": "getZombiesByOwner",
      "outputs": [
        {
          "internalType": "uint256[]",
          "name": "",
          "type": "uint256[]"
        }
      ],
      "stateMutability": "view",
      "type": "function"
    }
  ],
  "bytecode": "0x60806040526010600155600154600a6200001a91906200028b565b6002556201518060035566038d7ea4c680006008553480156200003c57600080fd5b50336000806101000a81548173ffffffffffffffffffffffffffffffffffffffff021916908373ffffffffffffffffffffffffffffffffffffffff16021790555060008054906101000a900473ffffffffffffffffffffffffffffffffffffffff1673ffffffffffffffffffffffffffffffffffffffff16600073ffffffffffffffffffffffffffffffffffffffff167f8be0079c531659141344cd1fd0a4f28419497f9722a3daafe3b4186f6b6457e060405160405180910390a3620002dc565b7f4e487b7100000000000000000000000000000000000000000000000000000000600052601160045260246000fd5b60008160011c9050919050565b6000808291508390505b60018511156200018c57808604811115620001645762000163620000fe565b5b6001851615620001745780820291505b808102905062000184856200012d565b945062000144565b94509492505050565b600082620001a757600190506200027a565b81620001b757600090506200027a565b8160018114620001d05760028114620001db5762000211565b60019150506200027a565b60ff841115620001f057620001ef620000fe565b5b8360020a9150848211156200020a5762000209620000fe565b5b506200027a565b5060208310610133831016604e8410600b84101617156200024b5782820a905083811115620002455762000244620000fe565b5b6200027a565b6200025a84848460016200013a565b92509050818404811115620002745762000273620000fe565b5b81810290505b9392505050565b6000819050919050565b6000620002988262000281565b9150620002a58362000281565b9250620002d47fffffffffffffffffffffffffffffffffffffffffffffffffffffffffffffffff848462000195565b905092915050565b611da980620002ec6000396000f3fe6080604052600436106100f35760003560e01c80635faf28801161008a5780638f32d59b116100595780638f32d59b1461030a578063c39cbef114610335578063ccf670f81461035e578063f2fde38b14610387576100f3565b80635faf288014610276578063715018a61461029f5780637bff0a01146102b65780638da5cb5b146102df576100f3565b80633ccfd60b116100c65780633ccfd60b146101bc5780634412e104146101d3578063528b7b8f146102105780635f4623f11461024d576100f3565b806301afd7e1146100f85780630ce90ec21461013557806317a7f4cc146101515780632052465e1461017a575b600080fd5b34801561010457600080fd5b5061011f600480360381019061011a919061135c565b6103b0565b60405161012c91906113a2565b60405180910390f35b61014f600480360381019061014a91906113e9565b6103c8565b005b34801561015d57600080fd5b5061017860048036038101906101739190611416565b61043d565b005b34801561018657600080fd5b506101a1600480360381019061019c91906113e9565b61055b565b6040516101b39695949392919061152b565b60405180910390f35b3480156101c857600080fd5b506101d161066b565b005b3480156101df57600080fd5b506101fa60048036038101906101f5919061135c565b6106d2565b6040516102079190611651565b60405180910390f35b34801561021c57600080fd5b50610237600480360381019061023291906113e9565b610825565b6040516102449190611682565b60405180910390f35b34801561025957600080fd5b50610274600480360381019061026f919061135c565b610858565b005b34801561028257600080fd5b5061029d60048036038101906102989190611416565b6108ad565b005b3480156102ab57600080fd5b506102b4610995565b005b3480156102c257600080fd5b506102dd60048036038101906102d891906117d2565b610a64565b005b3480156102eb57600080fd5b506102f4610ae5565b6040516103019190611682565b60405180910390f35b34801561031657600080fd5b5061031f610b0e565b60405161032c9190611836565b60405180910390f35b34801561034157600080fd5b5061035c600480360381019061035791906118b1565b610b65565b005b34801561036a57600080fd5b50610385600480360381019061038091906113e9565b610c59565b005b34801561039357600080fd5b506103ae60048036038101906103a9919061135c565b610c74565b005b60066020528060005260406000206000915090505481565b60085434146103d657600080fd5b600481815481106103ea576103e9611911565b5b9060005260206000209060030201600201600081819054906101000a900463ffffffff168092919061041b9061196f565b91906101000a81548163ffffffff021916908363ffffffff1602179055505050565b6000600760009054906101000a900473ffffffffffffffffffffffffffffffffffffffff1673ffffffffffffffffffffffffffffffffffffffff1663e98b7f4d836040518263ffffffff1660e01b815260040161049a91906113a2565b61014060405180830381865afa1580156104b8573d6000803e3d6000fd5b505050506040513d601f19601f820116820180604052508101906104dc91906119dd565b9091929394959697985090919293949596975090919293949596509091929394955090919293945090919293509091925090915090508091505061055683826040518060400160405280600581526020017f6b69747479000000000000000000000000000000000000000000000000000000815250610c91565b505050565b6004818154811061056b57600080fd5b906000526020600020906003020160009150905080600001805461058e90611aeb565b80601f01602080910402602001604051908101604052809291908181526020018280546105ba90611aeb565b80156106075780601f106105dc57610100808354040283529160200191610607565b820191906000526020600020905b8154815290600101906020018083116105ea57829003601f168201915b5050505050908060010154908060020160009054906101000a900463ffffffff16908060020160049054906101000a900463ffffffff16908060020160089054906101000a900461ffff169080600201600a9054906101000a900461ffff16905086565b610673610b0e565b61067c57600080fd5b6000610686610ae5565b90508073ffffffffffffffffffffffffffffffffffffffff166108fc479081150290604051600060405180830381858888f193505050501580156106ce573d6000803e3d6000fd5b5050565b60606000600660008473ffffffffffffffffffffffffffffffffffffffff1673ffffffffffffffffffffffffffffffffffffffff1681526020019081526020016000205467ffffffffffffffff81111561072f5761072e6116a7565b5b60405190808252806020026020018201604052801561075d5781602001602082028036833780820191505090505b5090506000805b60048054905081101561081a578473ffffffffffffffffffffffffffffffffffffffff166005600083815260200190815260200160002060009054906101000a900473ffffffffffffffffffffffffffffffffffffffff1673ffffffffffffffffffffffffffffffffffffffff16141561080757808383815181106107ec576107eb611911565b5b602002602001018181525050818061080390611b1d565b9250505b808061081290611b1d565b915050610764565b508192505050919050565b60056020528060005260406000206000915054906101000a900473ffffffffffffffffffffffffffffffffffffffff1681565b610860610b0e565b61086957600080fd5b80600760006101000a81548173ffffffffffffffffffffffffffffffffffffffff021916908373ffffffffffffffffffffffffffffffffffffffff16021790555050565b60148281600482815481106108c5576108c4611911565b5b906000526020600020906003020160020160009054906101000a900463ffffffff1663ffffffff1610156108f857600080fd5b836005600082815260200190815260200160002060009054906101000a900473ffffffffffffffffffffffffffffffffffffffff1673ffffffffffffffffffffffffffffffffffffffff163373ffffffffffffffffffffffffffffffffffffffff161461096457600080fd5b836004868154811061097957610978611911565b5b9060005260206000209060030201600101819055505050505050565b61099d610b0e565b6109a657600080fd5b600073ffffffffffffffffffffffffffffffffffffffff1660008054906101000a900473ffffffffffffffffffffffffffffffffffffffff1673ffffffffffffffffffffffffffffffffffffffff167f8be0079c531659141344cd1fd0a4f28419497f9722a3daafe3b4186f6b6457e060405160405180910390a360008060006101000a81548173ffffffffffffffffffffffffffffffffffffffff021916908373ffffffffffffffffffffffffffffffffffffffff160217905550565b6000600660003373ffffffffffffffffffffffffffffffffffffffff1673ffffffffffffffffffffffffffffffffffffffff1681526020019081526020016000205414610ab057600080fd5b6000610abb82610e1c565b9050606481610aca9190611b95565b81610ad59190611bc6565b9050610ae18282610e61565b5050565b60008060009054906101000a900473ffffffffffffffffffffffffffffffffffffffff16905090565b60008060009054906101000a900473ffffffffffffffffffffffffffffffffffffffff1673ffffffffffffffffffffffffffffffffffffffff163373ffffffffffffffffffffffffffffffffffffffff1614905090565b6002838160048281548110610b7d57610b7c611911565b5b906000526020600020906003020160020160009054906101000a900463ffffffff1663ffffffff161015610bb057600080fd5b846005600082815260200190815260200160002060009054906101000a900473ffffffffffffffffffffffffffffffffffffffff1673ffffffffffffffffffffffffffffffffffffffff163373ffffffffffffffffffffffffffffffffffffffff1614610c1c57600080fd5b848460048881548110610c3257610c31611911565b5b90600052602060002090600302016000019190610c509291906111c1565b50505050505050565b610c61610b0e565b610c6a57600080fd5b8060088190555050565b610c7c610b0e565b610c8557600080fd5b610c8e81611097565b50565b826005600082815260200190815260200160002060009054906101000a900473ffffffffffffffffffffffffffffffffffffffff1673ffffffffffffffffffffffffffffffffffffffff163373ffffffffffffffffffffffffffffffffffffffff1614610cfd57600080fd5b600060048581548110610d1357610d12611911565b5b9060005260206000209060030201905060025484610d319190611b95565b935060006002858360010154610d479190611bfa565b610d519190611c50565b9050604051602001610d6290611cd8565b6040516020818303038152906040528051906020012084604051602001610d899190611d1e565b604051602081830303815290604052805190602001201415610dcc576063606482610db49190611b95565b610dbe9190611bfa565b81610dc99190611bc6565b90505b610e0b6040518060400160405280600681526020017f4e6f4e616d65000000000000000000000000000000000000000000000000000081525082610e61565b610e148261118e565b505050505050565b60008082604051602001610e309190611d1e565b6040516020818303038152906040528051906020012060001c905060025481610e599190611b95565b915050919050565b60046040518060c00160405280848152602001838152602001600163ffffffff16815260200160035442610e959190611bfa565b63ffffffff168152602001600061ffff168152602001600061ffff1681525090806001815401808255809150506001900390600052602060002090600302016000909190919091506000820151816000019080519060200190610ef9929190611247565b506020820151816001015560408201518160020160006101000a81548163ffffffff021916908363ffffffff16021790555060608201518160020160046101000a81548163ffffffff021916908363ffffffff16021790555060808201518160020160086101000a81548161ffff021916908361ffff16021790555060a082015181600201600a6101000a81548161ffff021916908361ffff160217905550505060006001600480549050610fae9190611bc6565b9050336005600083815260200190815260200160002060006101000a81548173ffffffffffffffffffffffffffffffffffffffff021916908373ffffffffffffffffffffffffffffffffffffffff160217905550600660003373ffffffffffffffffffffffffffffffffffffffff1673ffffffffffffffffffffffffffffffffffffffff168152602001908152602001600020600081548092919061105290611b1d565b91905055507f88f026aacbbecc90c18411df4b1185fd8d9be2470f1962f192bf84a27d0704b781848460405161108a93929190611d35565b60405180910390a1505050565b600073ffffffffffffffffffffffffffffffffffffffff168173ffffffffffffffffffffffffffffffffffffffff1614156110d157600080fd5b8073ffffffffffffffffffffffffffffffffffffffff1660008054906101000a900473ffffffffffffffffffffffffffffffffffffffff1673ffffffffffffffffffffffffffffffffffffffff167f8be0079c531659141344cd1fd0a4f28419497f9722a3daafe3b4186f6b6457e060405160405180910390a3806000806101000a81548173ffffffffffffffffffffffffffffffffffffffff021916908373ffffffffffffffffffffffffffffffffffffffff16021790555050565b6003544261119c9190611bfa565b8160020160046101000a81548163ffffffff021916908363ffffffff16021790555050565b8280546111cd90611aeb565b90600052602060002090601f0160209004810192826111ef5760008555611236565b82601f1061120857803560ff1916838001178555611236565b82800160010185558215611236579182015b8281111561123557823582559160200191906001019061121a565b5b50905061124391906112cd565b5090565b82805461125390611aeb565b90600052602060002090601f01602090048101928261127557600085556112bc565b82601f1061128e57805160ff19168380011785556112bc565b828001600101855582156112bc579182015b828111156112bb5782518255916020019190600101906112a0565b5b5090506112c991906112cd565b5090565b5b808211156112e65760008160009055506001016112ce565b5090565b6000604051905090565b600080fd5b600080fd5b600073ffffffffffffffffffffffffffffffffffffffff82169050919050565b6000611329826112fe565b9050919050565b6113398161131e565b811461134457600080fd5b50565b60008135905061135681611330565b92915050565b600060208284031215611372576113716112f4565b5b600061138084828501611347565b91505092915050565b6000819050919050565b61139c81611389565b82525050565b60006020820190506113b76000830184611393565b92915050565b6113c681611389565b81146113d157600080fd5b50565b6000813590506113e3816113bd565b92915050565b6000602082840312156113ff576113fe6112f4565b5b600061140d848285016113d4565b91505092915050565b6000806040838503121561142d5761142c6112f4565b5b600061143b858286016113d4565b925050602061144c858286016113d4565b9150509250929050565b600081519050919050565b600082825260208201905092915050565b60005b83811015611490578082015181840152602081019050611475565b8381111561149f576000848401525b50505050565b6000601f19601f8301169050919050565b60006114c182611456565b6114cb8185611461565b93506114db818560208601611472565b6114e4816114a5565b840191505092915050565b600063ffffffff82169050919050565b611508816114ef565b82525050565b600061ffff82169050919050565b6115258161150e565b82525050565b600060c082019050818103600083015261154581896114b6565b90506115546020830188611393565b61156160408301876114ff565b61156e60608301866114ff565b61157b608083018561151c565b61158860a083018461151c565b979650505050505050565b600081519050919050565b600082825260208201905092915050565b6000819050602082019050919050565b6115c881611389565b82525050565b60006115da83836115bf565b60208301905092915050565b6000602082019050919050565b60006115fe82611593565b611608818561159e565b9350611613836115af565b8060005b8381101561164457815161162b88826115ce565b9750611636836115e6565b925050600181019050611617565b5085935050505092915050565b6000602082019050818103600083015261166b81846115f3565b905092915050565b61167c8161131e565b82525050565b60006020820190506116976000830184611673565b92915050565b600080fd5b600080fd5b7f4e487b7100000000000000000000000000000000000000000000000000000000600052604160045260246000fd5b6116df826114a5565b810181811067ffffffffffffffff821117156116fe576116fd6116a7565b5b80604052505050565b60006117116112ea565b905061171d82826116d6565b919050565b600067ffffffffffffffff82111561173d5761173c6116a7565b5b611746826114a5565b9050602081019050919050565b82818337600083830152505050565b600061177561177084611722565b611707565b905082815260208101848484011115611791576117906116a2565b5b61179c848285611753565b509392505050565b600082601f8301126117b9576117b861169d565b5b81356117c9848260208601611762565b91505092915050565b6000602082840312156117e8576117e76112f4565b5b600082013567ffffffffffffffff811115611806576118056112f9565b5b611812848285016117a4565b91505092915050565b60008115159050919050565b6118308161181b565b82525050565b600060208201905061184b6000830184611827565b92915050565b600080fd5b600080fd5b60008083601f8401126118715761187061169d565b5b8235905067ffffffffffffffff81111561188e5761188d611851565b5b6020830191508360018202830111156118aa576118a9611856565b5b9250929050565b6000806000604084860312156118ca576118c96112f4565b5b60006118d8868287016113d4565b935050602084013567ffffffffffffffff8111156118f9576118f86112f9565b5b6119058682870161185b565b92509250509250925092565b7f4e487b7100000000000000000000000000000000000000000000000000000000600052603260045260246000fd5b7f4e487b7100000000000000000000000000000000000000000000000000000000600052601160045260246000fd5b600061197a826114ef565b915063ffffffff82141561199157611990611940565b5b600182019050919050565b6119a58161181b565b81146119b057600080fd5b50565b6000815190506119c28161199c565b92915050565b6000815190506119d7816113bd565b92915050565b6000806000806000806000806000806101408b8d031215611a0157611a006112f4565b5b6000611a0f8d828e016119b3565b9a50506020611a208d828e016119b3565b9950506040611a318d828e016119c8565b9850506060611a428d828e016119c8565b9750506080611a538d828e016119c8565b96505060a0611a648d828e016119c8565b95505060c0611a758d828e016119c8565b94505060e0611a868d828e016119c8565b935050610100611a988d828e016119c8565b925050610120611aaa8d828e016119c8565b9150509295989b9194979a5092959850565b7f4e487b7100000000000000000000000000000000000000000000000000000000600052602260045260246000fd5b60006002820490506001821680611b0357607f821691505b60208210811415611b1757611b16611abc565b5b50919050565b6000611b2882611389565b91507fffffffffffffffffffffffffffffffffffffffffffffffffffffffffffffffff821415611b5b57611b5a611940565b5b600182019050919050565b7f4e487b7100000000000000000000000000000000000000000000000000000000600052601260045260246000fd5b6000611ba082611389565b9150611bab83611389565b925082611bbb57611bba611b66565b5b828206905092915050565b6000611bd182611389565b9150611bdc83611389565b925082821015611bef57611bee611940565b5b828203905092915050565b6000611c0582611389565b9150611c1083611389565b9250827fffffffffffffffffffffffffffffffffffffffffffffffffffffffffffffffff03821115611c4557611c44611940565b5b828201905092915050565b6000611c5b82611389565b9150611c6683611389565b925082611c7657611c75611b66565b5b828204905092915050565b600081905092915050565b7f6b69747479000000000000000000000000000000000000000000000000000000600082015250565b6000611cc2600583611c81565b9150611ccd82611c8c565b600582019050919050565b6000611ce382611cb5565b9150819050919050565b6000611cf882611456565b611d028185611c81565b9350611d12818560208601611472565b80840191505092915050565b6000611d2a8284611ced565b915081905092915050565b6000606082019050611d4a6000830186611393565b8181036020830152611d5c81856114b6565b9050611d6b6040830184611393565b94935050505056fea264697066735822122085ea9a7b33b524cd6befdd0c853b22440d901e713d012fca6a21e71a894a21ac64736f6c634300080a0033",
  "immutableReferences": {},
  "source": "// SPDX-License-Identifier: MIT\npragma solidity >=0.7.0 <0.9.0;\n\nimport \"./zombiefeeding.sol\";\n\ncontract ZombieHelper is ZombieFeeding {\n\n  uint levelUpFee = 0.001 ether;\n\n  modifier aboveLevel(uint _level, uint _zombieId) {\n    require(zombies[_zombieId].level >= _level);\n    _;\n  }\n\n  function withdraw() external onlyOwner {\n    address _owner = owner();\n    payable(_owner).transfer(address(this).balance);\n  }\n\n  function setLevelUpFee(uint _fee) external onlyOwner {\n    levelUpFee = _fee;\n  }\n\n  function levelUp(uint _zombieId) external payable {\n    require(msg.value == levelUpFee);\n    zombies[_zombieId].level++;\n  }\n\n  function changeName(uint _zombieId, string calldata _newName) external aboveLevel(2, _zombieId) onlyOwnerOf(_zombieId) {\n    zombies[_zombieId].name = _newName;\n  }\n\n  function changeDna(uint _zombieId, uint _newDna) external aboveLevel(20, _zombieId) onlyOwnerOf(_zombieId) {\n    zombies[_zombieId].dna = _newDna;\n  }\n\n  function getZombiesByOwner(address _owner) external view returns(uint[] memory) {\n    uint[] memory result = new uint[](ownerZombieCount[_owner]);\n    uint counter = 0;\n    for (uint i = 0; i < zombies.length; i++) {\n      if (zombieToOwner[i] == _owner) {\n        result[counter] = i;\n        counter++;\n      }\n    }\n    return result;\n  }\n\n}\n",
  "sourcePath": "/Users/JordanSun/Desktop/CryptoZombies/src/contracts/zombiehelper.sol",
  "compiler": {
    "name": "solc",
    "version": "0.8.10+commit.fc410830.Emscripten.clang"
  },
  "schemaVersion": "3.4.1",
  "updatedAt": "2021-11-29T21:55:43.717Z",
  "devdoc": {
    "kind": "dev",
    "methods": {
      "isOwner()": {
        "returns": {
          "_0": "true if `msg.sender` is the owner of the contract."
        }
      },
      "owner()": {
        "returns": {
          "_0": "the address of the owner."
        }
      },
      "renounceOwnership()": {
        "details": "Allows the current owner to relinquish control of the contract."
      },
      "transferOwnership(address)": {
        "details": "Allows the current owner to transfer control of the contract to a newOwner.",
        "params": {
          "newOwner": "The address to transfer ownership to."
        }
      }
    },
    "version": 1
  },
  "userdoc": {
    "kind": "user",
    "methods": {
      "renounceOwnership()": {
        "notice": "Renouncing to ownership will leave the contract without an owner. It will not be possible to call the functions with the `onlyOwner` modifier anymore."
      }
    },
    "version": 1
  }
}