{
  "contractName": "ZombieFeeding",
  "abi": [
    {
      "anonymous": false,
      "inputs": [
        {
          "indexed": false,
          "internalType": "uint256",
          "name": "zombieId",
          "type": "uint256"
        },
        {
          "indexed": false,
          "internalType": "string",
          "name": "name",
          "type": "string"
        },
        {
          "indexed": false,
          "internalType": "uint256",
          "name": "dna",
          "type": "uint256"
        }
      ],
      "name": "NewZombie",
      "type": "event"
    },
    {
      "anonymous": false,
      "inputs": [
        {
          "indexed": true,
          "internalType": "address",
          "name": "previousOwner",
          "type": "address"
        },
        {
          "indexed": true,
          "internalType": "address",
          "name": "newOwner",
          "type": "address"
        }
      ],
      "name": "OwnershipTransferred",
      "type": "event"
    },
    {
      "inputs": [
        {
          "internalType": "string",
          "name": "_name",
          "type": "string"
        }
      ],
      "name": "createRandomZombie",
      "outputs": [],
      "stateMutability": "nonpayable",
      "type": "function"
    },
    {
      "inputs": [],
      "name": "isOwner",
      "outputs": [
        {
          "internalType": "bool",
          "name": "",
          "type": "bool"
        }
      ],
      "stateMutability": "view",
      "type": "function"
    },
    {
      "inputs": [],
      "name": "owner",
      "outputs": [
        {
          "internalType": "address",
          "name": "",
          "type": "address"
        }
      ],
      "stateMutability": "view",
      "type": "function"
    },
    {
      "inputs": [
        {
          "internalType": "address",
          "name": "",
          "type": "address"
        }
      ],
      "name": "ownerZombieCount",
      "outputs": [
        {
          "internalType": "uint256",
          "name": "",
          "type": "uint256"
        }
      ],
      "stateMutability": "view",
      "type": "function"
    },
    {
      "inputs": [],
      "name": "renounceOwnership",
      "outputs": [],
      "stateMutability": "nonpayable",
      "type": "function"
    },
    {
      "inputs": [
        {
          "internalType": "address",
          "name": "newOwner",
          "type": "address"
        }
      ],
      "name": "transferOwnership",
      "outputs": [],
      "stateMutability": "nonpayable",
      "type": "function"
    },
    {
      "inputs": [
        {
          "internalType": "uint256",
          "name": "",
          "type": "uint256"
        }
      ],
      "name": "zombieToOwner",
      "outputs": [
        {
          "internalType": "address",
          "name": "",
          "type": "address"
        }
      ],
      "stateMutability": "view",
      "type": "function"
    },
    {
      "inputs": [
        {
          "internalType": "uint256",
          "name": "",
          "type": "uint256"
        }
      ],
      "name": "zombies",
      "outputs": [
        {
          "internalType": "string",
          "name": "name",
          "type": "string"
        },
        {
          "internalType": "uint256",
          "name": "dna",
          "type": "uint256"
        },
        {
          "internalType": "uint32",
          "name": "level",
          "type": "uint32"
        },
        {
          "internalType": "uint32",
          "name": "readyTime",
          "type": "uint32"
        },
        {
          "internalType": "uint16",
          "name": "winCount",
          "type": "uint16"
        },
        {
          "internalType": "uint16",
          "name": "lossCount",
          "type": "uint16"
        }
      ],
      "stateMutability": "view",
      "type": "function"
    },
    {
      "inputs": [
        {
          "internalType": "address",
          "name": "_address",
          "type": "address"
        }
      ],
      "name": "setKittyContractAddress",
      "outputs": [],
      "stateMutability": "nonpayable",
      "type": "function"
    },
    {
      "inputs": [
        {
          "internalType": "uint256",
          "name": "_zombieId",
          "type": "uint256"
        },
        {
          "internalType": "uint256",
          "name": "_kittyId",
          "type": "uint256"
        }
      ],
      "name": "feedOnKitty",
      "outputs": [],
      "stateMutability": "nonpayable",
      "type": "function"
    }
  ],
  "bytecode": "0x60806040526010600155600154600a6200001a919062000280565b600255620151806003553480156200003157600080fd5b50336000806101000a81548173ffffffffffffffffffffffffffffffffffffffff021916908373ffffffffffffffffffffffffffffffffffffffff16021790555060008054906101000a900473ffffffffffffffffffffffffffffffffffffffff1673ffffffffffffffffffffffffffffffffffffffff16600073ffffffffffffffffffffffffffffffffffffffff167f8be0079c531659141344cd1fd0a4f28419497f9722a3daafe3b4186f6b6457e060405160405180910390a3620002d1565b7f4e487b7100000000000000000000000000000000000000000000000000000000600052601160045260246000fd5b60008160011c9050919050565b6000808291508390505b60018511156200018157808604811115620001595762000158620000f3565b5b6001851615620001695780820291505b8081029050620001798562000122565b945062000139565b94509492505050565b6000826200019c57600190506200026f565b81620001ac57600090506200026f565b8160018114620001c55760028114620001d05762000206565b60019150506200026f565b60ff841115620001e557620001e4620000f3565b5b8360020a915084821115620001ff57620001fe620000f3565b5b506200026f565b5060208310610133831016604e8410600b8410161715620002405782820a9050838111156200023a5762000239620000f3565b5b6200026f565b6200024f84848460016200012f565b92509050818404811115620002695762000268620000f3565b5b81810290505b9392505050565b6000819050919050565b60006200028d8262000276565b91506200029a8362000276565b9250620002c97fffffffffffffffffffffffffffffffffffffffffffffffffffffffffffffffff84846200018a565b905092915050565b61156e80620002e16000396000f3fe608060405234801561001057600080fd5b506004361061009e5760003560e01c8063715018a611610066578063715018a6146101705780637bff0a011461017a5780638da5cb5b146101965780638f32d59b146101b4578063f2fde38b146101d25761009e565b806301afd7e1146100a357806317a7f4cc146100d35780632052465e146100ef578063528b7b8f146101245780635f4623f114610154575b600080fd5b6100bd60048036038101906100b89190610cee565b6101ee565b6040516100ca9190610d34565b60405180910390f35b6100ed60048036038101906100e89190610d7b565b610206565b005b61010960048036038101906101049190610dbb565b610324565b60405161011b96959493929190610ebd565b60405180910390f35b61013e60048036038101906101399190610dbb565b610434565b60405161014b9190610f34565b60405180910390f35b61016e60048036038101906101699190610cee565b610467565b005b6101786104bc565b005b610194600480360381019061018f9190611084565b61058b565b005b61019e61060c565b6040516101ab9190610f34565b60405180910390f35b6101bc610635565b6040516101c991906110e8565b60405180910390f35b6101ec60048036038101906101e79190610cee565b61068c565b005b60066020528060005260406000206000915090505481565b6000600760009054906101000a900473ffffffffffffffffffffffffffffffffffffffff1673ffffffffffffffffffffffffffffffffffffffff1663e98b7f4d836040518263ffffffff1660e01b81526004016102639190610d34565b61014060405180830381865afa158015610281573d6000803e3d6000fd5b505050506040513d601f19601f820116820180604052508101906102a59190611144565b9091929394959697985090919293949596975090919293949596509091929394955090919293945090919293509091925090915090508091505061031f83826040518060400160405280600581526020017f6b697474790000000000000000000000000000000000000000000000000000008152506106a9565b505050565b6004818154811061033457600080fd5b906000526020600020906003020160009150905080600001805461035790611252565b80601f016020809104026020016040519081016040528092919081815260200182805461038390611252565b80156103d05780601f106103a5576101008083540402835291602001916103d0565b820191906000526020600020905b8154815290600101906020018083116103b357829003601f168201915b5050505050908060010154908060020160009054906101000a900463ffffffff16908060020160049054906101000a900463ffffffff16908060020160089054906101000a900461ffff169080600201600a9054906101000a900461ffff16905086565b60056020528060005260406000206000915054906101000a900473ffffffffffffffffffffffffffffffffffffffff1681565b61046f610635565b61047857600080fd5b80600760006101000a81548173ffffffffffffffffffffffffffffffffffffffff021916908373ffffffffffffffffffffffffffffffffffffffff16021790555050565b6104c4610635565b6104cd57600080fd5b600073ffffffffffffffffffffffffffffffffffffffff1660008054906101000a900473ffffffffffffffffffffffffffffffffffffffff1673ffffffffffffffffffffffffffffffffffffffff167f8be0079c531659141344cd1fd0a4f28419497f9722a3daafe3b4186f6b6457e060405160405180910390a360008060006101000a81548173ffffffffffffffffffffffffffffffffffffffff021916908373ffffffffffffffffffffffffffffffffffffffff160217905550565b6000600660003373ffffffffffffffffffffffffffffffffffffffff1673ffffffffffffffffffffffffffffffffffffffff16815260200190815260200160002054146105d757600080fd5b60006105e282610834565b90506064816105f191906112b3565b816105fc9190611313565b90506106088282610879565b5050565b60008060009054906101000a900473ffffffffffffffffffffffffffffffffffffffff16905090565b60008060009054906101000a900473ffffffffffffffffffffffffffffffffffffffff1673ffffffffffffffffffffffffffffffffffffffff163373ffffffffffffffffffffffffffffffffffffffff1614905090565b610694610635565b61069d57600080fd5b6106a681610aaf565b50565b826005600082815260200190815260200160002060009054906101000a900473ffffffffffffffffffffffffffffffffffffffff1673ffffffffffffffffffffffffffffffffffffffff163373ffffffffffffffffffffffffffffffffffffffff161461071557600080fd5b60006004858154811061072b5761072a611347565b5b906000526020600020906003020190506002548461074991906112b3565b93506000600285836001015461075f9190611376565b61076991906113cc565b905060405160200161077a90611454565b60405160208183030381529060405280519060200120846040516020016107a1919061149a565b6040516020818303038152906040528051906020012014156107e45760636064826107cc91906112b3565b6107d69190611376565b816107e19190611313565b90505b6108236040518060400160405280600681526020017f4e6f4e616d65000000000000000000000000000000000000000000000000000081525082610879565b61082c82610ba6565b505050505050565b60008082604051602001610848919061149a565b6040516020818303038152906040528051906020012060001c90506002548161087191906112b3565b915050919050565b60046040518060c00160405280848152602001838152602001600163ffffffff168152602001600354426108ad9190611376565b63ffffffff168152602001600061ffff168152602001600061ffff1681525090806001815401808255809150506001900390600052602060002090600302016000909190919091506000820151816000019080519060200190610911929190610bd9565b506020820151816001015560408201518160020160006101000a81548163ffffffff021916908363ffffffff16021790555060608201518160020160046101000a81548163ffffffff021916908363ffffffff16021790555060808201518160020160086101000a81548161ffff021916908361ffff16021790555060a082015181600201600a6101000a81548161ffff021916908361ffff1602179055505050600060016004805490506109c69190611313565b9050336005600083815260200190815260200160002060006101000a81548173ffffffffffffffffffffffffffffffffffffffff021916908373ffffffffffffffffffffffffffffffffffffffff160217905550600660003373ffffffffffffffffffffffffffffffffffffffff1673ffffffffffffffffffffffffffffffffffffffff1681526020019081526020016000206000815480929190610a6a906114b1565b91905055507f88f026aacbbecc90c18411df4b1185fd8d9be2470f1962f192bf84a27d0704b7818484604051610aa2939291906114fa565b60405180910390a1505050565b600073ffffffffffffffffffffffffffffffffffffffff168173ffffffffffffffffffffffffffffffffffffffff161415610ae957600080fd5b8073ffffffffffffffffffffffffffffffffffffffff1660008054906101000a900473ffffffffffffffffffffffffffffffffffffffff1673ffffffffffffffffffffffffffffffffffffffff167f8be0079c531659141344cd1fd0a4f28419497f9722a3daafe3b4186f6b6457e060405160405180910390a3806000806101000a81548173ffffffffffffffffffffffffffffffffffffffff021916908373ffffffffffffffffffffffffffffffffffffffff16021790555050565b60035442610bb49190611376565b8160020160046101000a81548163ffffffff021916908363ffffffff16021790555050565b828054610be590611252565b90600052602060002090601f016020900481019282610c075760008555610c4e565b82601f10610c2057805160ff1916838001178555610c4e565b82800160010185558215610c4e579182015b82811115610c4d578251825591602001919060010190610c32565b5b509050610c5b9190610c5f565b5090565b5b80821115610c78576000816000905550600101610c60565b5090565b6000604051905090565b600080fd5b600080fd5b600073ffffffffffffffffffffffffffffffffffffffff82169050919050565b6000610cbb82610c90565b9050919050565b610ccb81610cb0565b8114610cd657600080fd5b50565b600081359050610ce881610cc2565b92915050565b600060208284031215610d0457610d03610c86565b5b6000610d1284828501610cd9565b91505092915050565b6000819050919050565b610d2e81610d1b565b82525050565b6000602082019050610d496000830184610d25565b92915050565b610d5881610d1b565b8114610d6357600080fd5b50565b600081359050610d7581610d4f565b92915050565b60008060408385031215610d9257610d91610c86565b5b6000610da085828601610d66565b9250506020610db185828601610d66565b9150509250929050565b600060208284031215610dd157610dd0610c86565b5b6000610ddf84828501610d66565b91505092915050565b600081519050919050565b600082825260208201905092915050565b60005b83811015610e22578082015181840152602081019050610e07565b83811115610e31576000848401525b50505050565b6000601f19601f8301169050919050565b6000610e5382610de8565b610e5d8185610df3565b9350610e6d818560208601610e04565b610e7681610e37565b840191505092915050565b600063ffffffff82169050919050565b610e9a81610e81565b82525050565b600061ffff82169050919050565b610eb781610ea0565b82525050565b600060c0820190508181036000830152610ed78189610e48565b9050610ee66020830188610d25565b610ef36040830187610e91565b610f006060830186610e91565b610f0d6080830185610eae565b610f1a60a0830184610eae565b979650505050505050565b610f2e81610cb0565b82525050565b6000602082019050610f496000830184610f25565b92915050565b600080fd5b600080fd5b7f4e487b7100000000000000000000000000000000000000000000000000000000600052604160045260246000fd5b610f9182610e37565b810181811067ffffffffffffffff82111715610fb057610faf610f59565b5b80604052505050565b6000610fc3610c7c565b9050610fcf8282610f88565b919050565b600067ffffffffffffffff821115610fef57610fee610f59565b5b610ff882610e37565b9050602081019050919050565b82818337600083830152505050565b600061102761102284610fd4565b610fb9565b90508281526020810184848401111561104357611042610f54565b5b61104e848285611005565b509392505050565b600082601f83011261106b5761106a610f4f565b5b813561107b848260208601611014565b91505092915050565b60006020828403121561109a57611099610c86565b5b600082013567ffffffffffffffff8111156110b8576110b7610c8b565b5b6110c484828501611056565b91505092915050565b60008115159050919050565b6110e2816110cd565b82525050565b60006020820190506110fd60008301846110d9565b92915050565b61110c816110cd565b811461111757600080fd5b50565b60008151905061112981611103565b92915050565b60008151905061113e81610d4f565b92915050565b6000806000806000806000806000806101408b8d03121561116857611167610c86565b5b60006111768d828e0161111a565b9a505060206111878d828e0161111a565b99505060406111988d828e0161112f565b98505060606111a98d828e0161112f565b97505060806111ba8d828e0161112f565b96505060a06111cb8d828e0161112f565b95505060c06111dc8d828e0161112f565b94505060e06111ed8d828e0161112f565b9350506101006111ff8d828e0161112f565b9250506101206112118d828e0161112f565b9150509295989b9194979a5092959850565b7f4e487b7100000000000000000000000000000000000000000000000000000000600052602260045260246000fd5b6000600282049050600182168061126a57607f821691505b6020821081141561127e5761127d611223565b5b50919050565b7f4e487b7100000000000000000000000000000000000000000000000000000000600052601260045260246000fd5b60006112be82610d1b565b91506112c983610d1b565b9250826112d9576112d8611284565b5b828206905092915050565b7f4e487b7100000000000000000000000000000000000000000000000000000000600052601160045260246000fd5b600061131e82610d1b565b915061132983610d1b565b92508282101561133c5761133b6112e4565b5b828203905092915050565b7f4e487b7100000000000000000000000000000000000000000000000000000000600052603260045260246000fd5b600061138182610d1b565b915061138c83610d1b565b9250827fffffffffffffffffffffffffffffffffffffffffffffffffffffffffffffffff038211156113c1576113c06112e4565b5b828201905092915050565b60006113d782610d1b565b91506113e283610d1b565b9250826113f2576113f1611284565b5b828204905092915050565b600081905092915050565b7f6b69747479000000000000000000000000000000000000000000000000000000600082015250565b600061143e6005836113fd565b915061144982611408565b600582019050919050565b600061145f82611431565b9150819050919050565b600061147482610de8565b61147e81856113fd565b935061148e818560208601610e04565b80840191505092915050565b60006114a68284611469565b915081905092915050565b60006114bc82610d1b565b91507fffffffffffffffffffffffffffffffffffffffffffffffffffffffffffffffff8214156114ef576114ee6112e4565b5b600182019050919050565b600060608201905061150f6000830186610d25565b81810360208301526115218185610e48565b90506115306040830184610d25565b94935050505056fea264697066735822122024dd57a4968c4e632b9938efa769e17118bad583bd6dd8224ca39fb88374cbf364736f6c634300080a0033",
  "immutableReferences": {},
  "source": "// SPDX-License-Identifier: MIT\npragma solidity >=0.7.0 <0.9.0;\n\nimport \"./zombiefactory.sol\";\n\nabstract contract KittyInterface {\n  function getKitty(uint256 _id) external view virtual returns (\n    bool isGestating,\n    bool isReady,\n    uint256 cooldownIndex,\n    uint256 nextActionAt,\n    uint256 siringWithId,\n    uint256 birthTime,\n    uint256 matronId,\n    uint256 sireId,\n    uint256 generation,\n    uint256 genes\n  );\n}\n\ncontract ZombieFeeding is ZombieFactory {\n\n  KittyInterface kittyContract;\n\n  modifier onlyOwnerOf(uint _zombieId) {\n    require(msg.sender == zombieToOwner[_zombieId]);\n    _;\n  }\n\n  function setKittyContractAddress(address _address) external onlyOwner {\n    kittyContract = KittyInterface(_address);\n  }\n\n  function _triggerCooldown(Zombie storage _zombie) internal {\n    _zombie.readyTime = uint32(block.timestamp + cooldownTime);\n  }\n\n  function _isReady(Zombie storage _zombie) internal view returns (bool) {\n      return (_zombie.readyTime <= block.timestamp);\n  }\n\n  function feedAndMultiply(uint _zombieId, uint _targetDna, string memory _species) internal onlyOwnerOf(_zombieId) {\n    Zombie storage myZombie = zombies[_zombieId];\n    //require(_isReady(myZombie));\n    _targetDna %= dnaModulus;\n    uint newDna = (myZombie.dna + _targetDna) / 2;\n    if (keccak256(abi.encodePacked(_species)) == keccak256(abi.encodePacked(\"kitty\"))) {\n      newDna -= newDna % 100 + 99;\n    }\n    _createZombie(\"NoName\", newDna);\n    _triggerCooldown(myZombie);\n  }\n\n  function feedOnKitty(uint _zombieId, uint _kittyId) public {\n    uint kittyDna;\n    (,,,,,,,,,kittyDna) = kittyContract.getKitty(_kittyId);\n    feedAndMultiply(_zombieId, kittyDna, \"kitty\");\n  }\n}\n",
  "sourcePath": "/Users/JordanSun/Desktop/CryptoZombies/src/contracts/zombiefeeding.sol",
  "compiler": {
    "name": "solc",
    "version": "0.8.10+commit.fc410830.Emscripten.clang"
  },
  "schemaVersion": "3.4.1",
  "updatedAt": "2021-11-28T08:02:33.856Z",
  "devdoc": {
    "kind": "dev",
    "methods": {
      "isOwner()": {
        "returns": {
          "_0": "true if `msg.sender` is the owner of the contract."
        }
      },
      "owner()": {
        "returns": {
          "_0": "the address of the owner."
        }
      },
      "renounceOwnership()": {
        "details": "Allows the current owner to relinquish control of the contract."
      },
      "transferOwnership(address)": {
        "details": "Allows the current owner to transfer control of the contract to a newOwner.",
        "params": {
          "newOwner": "The address to transfer ownership to."
        }
      }
    },
    "version": 1
  },
  "userdoc": {
    "kind": "user",
    "methods": {
      "renounceOwnership()": {
        "notice": "Renouncing to ownership will leave the contract without an owner. It will not be possible to call the functions with the `onlyOwner` modifier anymore."
      }
    },
    "version": 1
  }
}