{
  "contractName": "ZombieAttack",
  "abi": [
    {
      "anonymous": false,
      "inputs": [
        {
          "indexed": false,
          "internalType": "uint256",
          "name": "zombieId",
          "type": "uint256"
        },
        {
          "indexed": false,
          "internalType": "string",
          "name": "name",
          "type": "string"
        },
        {
          "indexed": false,
          "internalType": "uint256",
          "name": "dna",
          "type": "uint256"
        }
      ],
      "name": "NewZombie",
      "type": "event"
    },
    {
      "anonymous": false,
      "inputs": [
        {
          "indexed": true,
          "internalType": "address",
          "name": "previousOwner",
          "type": "address"
        },
        {
          "indexed": true,
          "internalType": "address",
          "name": "newOwner",
          "type": "address"
        }
      ],
      "name": "OwnershipTransferred",
      "type": "event"
    },
    {
      "inputs": [
        {
          "internalType": "uint256",
          "name": "_zombieId",
          "type": "uint256"
        },
        {
          "internalType": "uint256",
          "name": "_newDna",
          "type": "uint256"
        }
      ],
      "name": "changeDna",
      "outputs": [],
      "stateMutability": "nonpayable",
      "type": "function"
    },
    {
      "inputs": [
        {
          "internalType": "uint256",
          "name": "_zombieId",
          "type": "uint256"
        },
        {
          "internalType": "string",
          "name": "_newName",
          "type": "string"
        }
      ],
      "name": "changeName",
      "outputs": [],
      "stateMutability": "nonpayable",
      "type": "function"
    },
    {
      "inputs": [
        {
          "internalType": "string",
          "name": "_name",
          "type": "string"
        }
      ],
      "name": "createRandomZombie",
      "outputs": [],
      "stateMutability": "nonpayable",
      "type": "function"
    },
    {
      "inputs": [
        {
          "internalType": "uint256",
          "name": "_zombieId",
          "type": "uint256"
        },
        {
          "internalType": "uint256",
          "name": "_kittyId",
          "type": "uint256"
        }
      ],
      "name": "feedOnKitty",
      "outputs": [],
      "stateMutability": "nonpayable",
      "type": "function"
    },
    {
      "inputs": [
        {
          "internalType": "address",
          "name": "_owner",
          "type": "address"
        }
      ],
      "name": "getZombiesByOwner",
      "outputs": [
        {
          "internalType": "uint256[]",
          "name": "",
          "type": "uint256[]"
        }
      ],
      "stateMutability": "view",
      "type": "function"
    },
    {
      "inputs": [],
      "name": "isOwner",
      "outputs": [
        {
          "internalType": "bool",
          "name": "",
          "type": "bool"
        }
      ],
      "stateMutability": "view",
      "type": "function"
    },
    {
      "inputs": [
        {
          "internalType": "uint256",
          "name": "_zombieId",
          "type": "uint256"
        }
      ],
      "name": "levelUp",
      "outputs": [],
      "stateMutability": "payable",
      "type": "function"
    },
    {
      "inputs": [],
      "name": "owner",
      "outputs": [
        {
          "internalType": "address",
          "name": "",
          "type": "address"
        }
      ],
      "stateMutability": "view",
      "type": "function"
    },
    {
      "inputs": [
        {
          "internalType": "address",
          "name": "",
          "type": "address"
        }
      ],
      "name": "ownerZombieCount",
      "outputs": [
        {
          "internalType": "uint256",
          "name": "",
          "type": "uint256"
        }
      ],
      "stateMutability": "view",
      "type": "function"
    },
    {
      "inputs": [],
      "name": "renounceOwnership",
      "outputs": [],
      "stateMutability": "nonpayable",
      "type": "function"
    },
    {
      "inputs": [
        {
          "internalType": "address",
          "name": "_address",
          "type": "address"
        }
      ],
      "name": "setKittyContractAddress",
      "outputs": [],
      "stateMutability": "nonpayable",
      "type": "function"
    },
    {
      "inputs": [
        {
          "internalType": "uint256",
          "name": "_fee",
          "type": "uint256"
        }
      ],
      "name": "setLevelUpFee",
      "outputs": [],
      "stateMutability": "nonpayable",
      "type": "function"
    },
    {
      "inputs": [
        {
          "internalType": "address",
          "name": "newOwner",
          "type": "address"
        }
      ],
      "name": "transferOwnership",
      "outputs": [],
      "stateMutability": "nonpayable",
      "type": "function"
    },
    {
      "inputs": [],
      "name": "withdraw",
      "outputs": [],
      "stateMutability": "nonpayable",
      "type": "function"
    },
    {
      "inputs": [
        {
          "internalType": "uint256",
          "name": "",
          "type": "uint256"
        }
      ],
      "name": "zombieToOwner",
      "outputs": [
        {
          "internalType": "address",
          "name": "",
          "type": "address"
        }
      ],
      "stateMutability": "view",
      "type": "function"
    },
    {
      "inputs": [
        {
          "internalType": "uint256",
          "name": "",
          "type": "uint256"
        }
      ],
      "name": "zombies",
      "outputs": [
        {
          "internalType": "string",
          "name": "name",
          "type": "string"
        },
        {
          "internalType": "uint256",
          "name": "dna",
          "type": "uint256"
        },
        {
          "internalType": "uint32",
          "name": "level",
          "type": "uint32"
        },
        {
          "internalType": "uint32",
          "name": "readyTime",
          "type": "uint32"
        },
        {
          "internalType": "uint16",
          "name": "winCount",
          "type": "uint16"
        },
        {
          "internalType": "uint16",
          "name": "lossCount",
          "type": "uint16"
        }
      ],
      "stateMutability": "view",
      "type": "function"
    },
    {
      "inputs": [
        {
          "internalType": "uint256",
          "name": "_zombieId",
          "type": "uint256"
        },
        {
          "internalType": "uint256",
          "name": "_targetId",
          "type": "uint256"
        }
      ],
      "name": "attack",
      "outputs": [],
      "stateMutability": "nonpayable",
      "type": "function"
    }
  ],
  "bytecode": "0x60806040526010600155600154600a6200001a919062000295565b6002556201518060035566038d7ea4c6800060085560006009556046600a553480156200004657600080fd5b50336000806101000a81548173ffffffffffffffffffffffffffffffffffffffff021916908373ffffffffffffffffffffffffffffffffffffffff16021790555060008054906101000a900473ffffffffffffffffffffffffffffffffffffffff1673ffffffffffffffffffffffffffffffffffffffff16600073ffffffffffffffffffffffffffffffffffffffff167f8be0079c531659141344cd1fd0a4f28419497f9722a3daafe3b4186f6b6457e060405160405180910390a3620002e6565b7f4e487b7100000000000000000000000000000000000000000000000000000000600052601160045260246000fd5b60008160011c9050919050565b6000808291508390505b600185111562000196578086048111156200016e576200016d62000108565b5b60018516156200017e5780820291505b80810290506200018e8562000137565b94506200014e565b94509492505050565b600082620001b1576001905062000284565b81620001c1576000905062000284565b8160018114620001da5760028114620001e5576200021b565b600191505062000284565b60ff841115620001fa57620001f962000108565b5b8360020a91508482111562000214576200021362000108565b5b5062000284565b5060208310610133831016604e8410600b8410161715620002555782820a9050838111156200024f576200024e62000108565b5b62000284565b62000264848484600162000144565b925090508184048111156200027e576200027d62000108565b5b81810290505b9392505050565b6000819050919050565b6000620002a2826200028b565b9150620002af836200028b565b9250620002de7fffffffffffffffffffffffffffffffffffffffffffffffffffffffffffffffff84846200019f565b905092915050565b61216b80620002f66000396000f3fe6080604052600436106100fe5760003560e01c80635faf2880116100955780638f32d59b116100645780638f32d59b14610315578063c39cbef114610340578063ccf670f814610369578063e1fa763814610392578063f2fde38b146103bb576100fe565b80635faf288014610281578063715018a6146102aa5780637bff0a01146102c15780638da5cb5b146102ea576100fe565b80633ccfd60b116100d15780633ccfd60b146101c75780634412e104146101de578063528b7b8f1461021b5780635f4623f114610258576100fe565b806301afd7e1146101035780630ce90ec21461014057806317a7f4cc1461015c5780632052465e14610185575b600080fd5b34801561010f57600080fd5b5061012a6004803603810190610125919061164d565b6103e4565b6040516101379190611693565b60405180910390f35b61015a600480360381019061015591906116da565b6103fc565b005b34801561016857600080fd5b50610183600480360381019061017e9190611707565b610471565b005b34801561019157600080fd5b506101ac60048036038101906101a791906116da565b61058f565b6040516101be9695949392919061181c565b60405180910390f35b3480156101d357600080fd5b506101dc61069f565b005b3480156101ea57600080fd5b506102056004803603810190610200919061164d565b610706565b6040516102129190611942565b60405180910390f35b34801561022757600080fd5b50610242600480360381019061023d91906116da565b610859565b60405161024f9190611973565b60405180910390f35b34801561026457600080fd5b5061027f600480360381019061027a919061164d565b61088c565b005b34801561028d57600080fd5b506102a860048036038101906102a39190611707565b6108e1565b005b3480156102b657600080fd5b506102bf6109c9565b005b3480156102cd57600080fd5b506102e860048036038101906102e39190611ac3565b610a98565b005b3480156102f657600080fd5b506102ff610b19565b60405161030c9190611973565b60405180910390f35b34801561032157600080fd5b5061032a610b42565b6040516103379190611b27565b60405180910390f35b34801561034c57600080fd5b5061036760048036038101906103629190611ba2565b610b99565b005b34801561037557600080fd5b50610390600480360381019061038b91906116da565b610c8d565b005b34801561039e57600080fd5b506103b960048036038101906103b49190611707565b610ca8565b005b3480156103c757600080fd5b506103e260048036038101906103dd919061164d565b610f09565b005b60066020528060005260406000206000915090505481565b600854341461040a57600080fd5b6004818154811061041e5761041d611c02565b5b9060005260206000209060030201600201600081819054906101000a900463ffffffff168092919061044f90611c60565b91906101000a81548163ffffffff021916908363ffffffff1602179055505050565b6000600760009054906101000a900473ffffffffffffffffffffffffffffffffffffffff1673ffffffffffffffffffffffffffffffffffffffff1663e98b7f4d836040518263ffffffff1660e01b81526004016104ce9190611693565b61014060405180830381865afa1580156104ec573d6000803e3d6000fd5b505050506040513d601f19601f820116820180604052508101906105109190611cce565b9091929394959697985090919293949596975090919293949596509091929394955090919293945090919293509091925090915090508091505061058a83826040518060400160405280600581526020017f6b69747479000000000000000000000000000000000000000000000000000000815250610f26565b505050565b6004818154811061059f57600080fd5b90600052602060002090600302016000915090508060000180546105c290611ddc565b80601f01602080910402602001604051908101604052809291908181526020018280546105ee90611ddc565b801561063b5780601f106106105761010080835404028352916020019161063b565b820191906000526020600020905b81548152906001019060200180831161061e57829003601f168201915b5050505050908060010154908060020160009054906101000a900463ffffffff16908060020160049054906101000a900463ffffffff16908060020160089054906101000a900461ffff169080600201600a9054906101000a900461ffff16905086565b6106a7610b42565b6106b057600080fd5b60006106ba610b19565b90508073ffffffffffffffffffffffffffffffffffffffff166108fc479081150290604051600060405180830381858888f19350505050158015610702573d6000803e3d6000fd5b5050565b60606000600660008473ffffffffffffffffffffffffffffffffffffffff1673ffffffffffffffffffffffffffffffffffffffff1681526020019081526020016000205467ffffffffffffffff81111561076357610762611998565b5b6040519080825280602002602001820160405280156107915781602001602082028036833780820191505090505b5090506000805b60048054905081101561084e578473ffffffffffffffffffffffffffffffffffffffff166005600083815260200190815260200160002060009054906101000a900473ffffffffffffffffffffffffffffffffffffffff1673ffffffffffffffffffffffffffffffffffffffff16141561083b57808383815181106108205761081f611c02565b5b602002602001018181525050818061083790611e0e565b9250505b808061084690611e0e565b915050610798565b508192505050919050565b60056020528060005260406000206000915054906101000a900473ffffffffffffffffffffffffffffffffffffffff1681565b610894610b42565b61089d57600080fd5b80600760006101000a81548173ffffffffffffffffffffffffffffffffffffffff021916908373ffffffffffffffffffffffffffffffffffffffff16021790555050565b60148281600482815481106108f9576108f8611c02565b5b906000526020600020906003020160020160009054906101000a900463ffffffff1663ffffffff16101561092c57600080fd5b836005600082815260200190815260200160002060009054906101000a900473ffffffffffffffffffffffffffffffffffffffff1673ffffffffffffffffffffffffffffffffffffffff163373ffffffffffffffffffffffffffffffffffffffff161461099857600080fd5b83600486815481106109ad576109ac611c02565b5b9060005260206000209060030201600101819055505050505050565b6109d1610b42565b6109da57600080fd5b600073ffffffffffffffffffffffffffffffffffffffff1660008054906101000a900473ffffffffffffffffffffffffffffffffffffffff1673ffffffffffffffffffffffffffffffffffffffff167f8be0079c531659141344cd1fd0a4f28419497f9722a3daafe3b4186f6b6457e060405160405180910390a360008060006101000a81548173ffffffffffffffffffffffffffffffffffffffff021916908373ffffffffffffffffffffffffffffffffffffffff160217905550565b6000600660003373ffffffffffffffffffffffffffffffffffffffff1673ffffffffffffffffffffffffffffffffffffffff1681526020019081526020016000205414610ae457600080fd5b6000610aef826110b1565b9050606481610afe9190611e86565b81610b099190611eb7565b9050610b1582826110f6565b5050565b60008060009054906101000a900473ffffffffffffffffffffffffffffffffffffffff16905090565b60008060009054906101000a900473ffffffffffffffffffffffffffffffffffffffff1673ffffffffffffffffffffffffffffffffffffffff163373ffffffffffffffffffffffffffffffffffffffff1614905090565b6002838160048281548110610bb157610bb0611c02565b5b906000526020600020906003020160020160009054906101000a900463ffffffff1663ffffffff161015610be457600080fd5b846005600082815260200190815260200160002060009054906101000a900473ffffffffffffffffffffffffffffffffffffffff1673ffffffffffffffffffffffffffffffffffffffff163373ffffffffffffffffffffffffffffffffffffffff1614610c5057600080fd5b848460048881548110610c6657610c65611c02565b5b90600052602060002090600302016000019190610c849291906114b2565b50505050505050565b610c95610b42565b610c9e57600080fd5b8060088190555050565b816005600082815260200190815260200160002060009054906101000a900473ffffffffffffffffffffffffffffffffffffffff1673ffffffffffffffffffffffffffffffffffffffff163373ffffffffffffffffffffffffffffffffffffffff1614610d1457600080fd5b600060048481548110610d2a57610d29611c02565b5b90600052602060002090600302019050600060048481548110610d5057610d4f611c02565b5b906000526020600020906003020190506000610d6c606461132c565b9050600a548111610e7d5782600201600881819054906101000a900461ffff1680929190610d9990611eeb565b91906101000a81548161ffff021916908361ffff1602179055505082600201600081819054906101000a900463ffffffff1680929190610dd890611c60565b91906101000a81548163ffffffff021916908363ffffffff1602179055505081600201600a81819054906101000a900461ffff1680929190610e1990611eeb565b91906101000a81548161ffff021916908361ffff16021790555050610e788683600101546040518060400160405280600681526020017f7a6f6d6269650000000000000000000000000000000000000000000000000000815250610f26565b610f01565b82600201600a81819054906101000a900461ffff1680929190610e9f90611eeb565b91906101000a81548161ffff021916908361ffff1602179055505081600201600881819054906101000a900461ffff1680929190610edc90611eeb565b91906101000a81548161ffff021916908361ffff16021790555050610f0083611388565b5b505050505050565b610f11610b42565b610f1a57600080fd5b610f23816113bb565b50565b826005600082815260200190815260200160002060009054906101000a900473ffffffffffffffffffffffffffffffffffffffff1673ffffffffffffffffffffffffffffffffffffffff163373ffffffffffffffffffffffffffffffffffffffff1614610f9257600080fd5b600060048581548110610fa857610fa7611c02565b5b9060005260206000209060030201905060025484610fc69190611e86565b935060006002858360010154610fdc9190611f16565b610fe69190611f6c565b9050604051602001610ff790611ff4565b604051602081830303815290604052805190602001208460405160200161101e919061203a565b6040516020818303038152906040528051906020012014156110615760636064826110499190611e86565b6110539190611f16565b8161105e9190611eb7565b90505b6110a06040518060400160405280600681526020017f4e6f4e616d650000000000000000000000000000000000000000000000000000815250826110f6565b6110a982611388565b505050505050565b600080826040516020016110c5919061203a565b6040516020818303038152906040528051906020012060001c9050600254816110ee9190611e86565b915050919050565b60046040518060c00160405280848152602001838152602001600163ffffffff1681526020016003544261112a9190611f16565b63ffffffff168152602001600061ffff168152602001600061ffff168152509080600181540180825580915050600190039060005260206000209060030201600090919091909150600082015181600001908051906020019061118e929190611538565b506020820151816001015560408201518160020160006101000a81548163ffffffff021916908363ffffffff16021790555060608201518160020160046101000a81548163ffffffff021916908363ffffffff16021790555060808201518160020160086101000a81548161ffff021916908361ffff16021790555060a082015181600201600a6101000a81548161ffff021916908361ffff1602179055505050600060016004805490506112439190611eb7565b9050336005600083815260200190815260200160002060006101000a81548173ffffffffffffffffffffffffffffffffffffffff021916908373ffffffffffffffffffffffffffffffffffffffff160217905550600660003373ffffffffffffffffffffffffffffffffffffffff1673ffffffffffffffffffffffffffffffffffffffff16815260200190815260200160002060008154809291906112e790611e0e565b91905055507f88f026aacbbecc90c18411df4b1185fd8d9be2470f1962f192bf84a27d0704b781848460405161131f93929190612051565b60405180910390a1505050565b60006009600081548092919061134190611e0e565b919050555081423360095460405160200161135e939291906120f8565b6040516020818303038152906040528051906020012060001c6113819190611e86565b9050919050565b600354426113969190611f16565b8160020160046101000a81548163ffffffff021916908363ffffffff16021790555050565b600073ffffffffffffffffffffffffffffffffffffffff168173ffffffffffffffffffffffffffffffffffffffff1614156113f557600080fd5b8073ffffffffffffffffffffffffffffffffffffffff1660008054906101000a900473ffffffffffffffffffffffffffffffffffffffff1673ffffffffffffffffffffffffffffffffffffffff167f8be0079c531659141344cd1fd0a4f28419497f9722a3daafe3b4186f6b6457e060405160405180910390a3806000806101000a81548173ffffffffffffffffffffffffffffffffffffffff021916908373ffffffffffffffffffffffffffffffffffffffff16021790555050565b8280546114be90611ddc565b90600052602060002090601f0160209004810192826114e05760008555611527565b82601f106114f957803560ff1916838001178555611527565b82800160010185558215611527579182015b8281111561152657823582559160200191906001019061150b565b5b50905061153491906115be565b5090565b82805461154490611ddc565b90600052602060002090601f01602090048101928261156657600085556115ad565b82601f1061157f57805160ff19168380011785556115ad565b828001600101855582156115ad579182015b828111156115ac578251825591602001919060010190611591565b5b5090506115ba91906115be565b5090565b5b808211156115d75760008160009055506001016115bf565b5090565b6000604051905090565b600080fd5b600080fd5b600073ffffffffffffffffffffffffffffffffffffffff82169050919050565b600061161a826115ef565b9050919050565b61162a8161160f565b811461163557600080fd5b50565b60008135905061164781611621565b92915050565b600060208284031215611663576116626115e5565b5b600061167184828501611638565b91505092915050565b6000819050919050565b61168d8161167a565b82525050565b60006020820190506116a86000830184611684565b92915050565b6116b78161167a565b81146116c257600080fd5b50565b6000813590506116d4816116ae565b92915050565b6000602082840312156116f0576116ef6115e5565b5b60006116fe848285016116c5565b91505092915050565b6000806040838503121561171e5761171d6115e5565b5b600061172c858286016116c5565b925050602061173d858286016116c5565b9150509250929050565b600081519050919050565b600082825260208201905092915050565b60005b83811015611781578082015181840152602081019050611766565b83811115611790576000848401525b50505050565b6000601f19601f8301169050919050565b60006117b282611747565b6117bc8185611752565b93506117cc818560208601611763565b6117d581611796565b840191505092915050565b600063ffffffff82169050919050565b6117f9816117e0565b82525050565b600061ffff82169050919050565b611816816117ff565b82525050565b600060c082019050818103600083015261183681896117a7565b90506118456020830188611684565b61185260408301876117f0565b61185f60608301866117f0565b61186c608083018561180d565b61187960a083018461180d565b979650505050505050565b600081519050919050565b600082825260208201905092915050565b6000819050602082019050919050565b6118b98161167a565b82525050565b60006118cb83836118b0565b60208301905092915050565b6000602082019050919050565b60006118ef82611884565b6118f9818561188f565b9350611904836118a0565b8060005b8381101561193557815161191c88826118bf565b9750611927836118d7565b925050600181019050611908565b5085935050505092915050565b6000602082019050818103600083015261195c81846118e4565b905092915050565b61196d8161160f565b82525050565b60006020820190506119886000830184611964565b92915050565b600080fd5b600080fd5b7f4e487b7100000000000000000000000000000000000000000000000000000000600052604160045260246000fd5b6119d082611796565b810181811067ffffffffffffffff821117156119ef576119ee611998565b5b80604052505050565b6000611a026115db565b9050611a0e82826119c7565b919050565b600067ffffffffffffffff821115611a2e57611a2d611998565b5b611a3782611796565b9050602081019050919050565b82818337600083830152505050565b6000611a66611a6184611a13565b6119f8565b905082815260208101848484011115611a8257611a81611993565b5b611a8d848285611a44565b509392505050565b600082601f830112611aaa57611aa961198e565b5b8135611aba848260208601611a53565b91505092915050565b600060208284031215611ad957611ad86115e5565b5b600082013567ffffffffffffffff811115611af757611af66115ea565b5b611b0384828501611a95565b91505092915050565b60008115159050919050565b611b2181611b0c565b82525050565b6000602082019050611b3c6000830184611b18565b92915050565b600080fd5b600080fd5b60008083601f840112611b6257611b6161198e565b5b8235905067ffffffffffffffff811115611b7f57611b7e611b42565b5b602083019150836001820283011115611b9b57611b9a611b47565b5b9250929050565b600080600060408486031215611bbb57611bba6115e5565b5b6000611bc9868287016116c5565b935050602084013567ffffffffffffffff811115611bea57611be96115ea565b5b611bf686828701611b4c565b92509250509250925092565b7f4e487b7100000000000000000000000000000000000000000000000000000000600052603260045260246000fd5b7f4e487b7100000000000000000000000000000000000000000000000000000000600052601160045260246000fd5b6000611c6b826117e0565b915063ffffffff821415611c8257611c81611c31565b5b600182019050919050565b611c9681611b0c565b8114611ca157600080fd5b50565b600081519050611cb381611c8d565b92915050565b600081519050611cc8816116ae565b92915050565b6000806000806000806000806000806101408b8d031215611cf257611cf16115e5565b5b6000611d008d828e01611ca4565b9a50506020611d118d828e01611ca4565b9950506040611d228d828e01611cb9565b9850506060611d338d828e01611cb9565b9750506080611d448d828e01611cb9565b96505060a0611d558d828e01611cb9565b95505060c0611d668d828e01611cb9565b94505060e0611d778d828e01611cb9565b935050610100611d898d828e01611cb9565b925050610120611d9b8d828e01611cb9565b9150509295989b9194979a5092959850565b7f4e487b7100000000000000000000000000000000000000000000000000000000600052602260045260246000fd5b60006002820490506001821680611df457607f821691505b60208210811415611e0857611e07611dad565b5b50919050565b6000611e198261167a565b91507fffffffffffffffffffffffffffffffffffffffffffffffffffffffffffffffff821415611e4c57611e4b611c31565b5b600182019050919050565b7f4e487b7100000000000000000000000000000000000000000000000000000000600052601260045260246000fd5b6000611e918261167a565b9150611e9c8361167a565b925082611eac57611eab611e57565b5b828206905092915050565b6000611ec28261167a565b9150611ecd8361167a565b925082821015611ee057611edf611c31565b5b828203905092915050565b6000611ef6826117ff565b915061ffff821415611f0b57611f0a611c31565b5b600182019050919050565b6000611f218261167a565b9150611f2c8361167a565b9250827fffffffffffffffffffffffffffffffffffffffffffffffffffffffffffffffff03821115611f6157611f60611c31565b5b828201905092915050565b6000611f778261167a565b9150611f828361167a565b925082611f9257611f91611e57565b5b828204905092915050565b600081905092915050565b7f6b69747479000000000000000000000000000000000000000000000000000000600082015250565b6000611fde600583611f9d565b9150611fe982611fa8565b600582019050919050565b6000611fff82611fd1565b9150819050919050565b600061201482611747565b61201e8185611f9d565b935061202e818560208601611763565b80840191505092915050565b60006120468284612009565b915081905092915050565b60006060820190506120666000830186611684565b818103602083015261207881856117a7565b90506120876040830184611684565b949350505050565b6000819050919050565b6120aa6120a58261167a565b61208f565b82525050565b60008160601b9050919050565b60006120c8826120b0565b9050919050565b60006120da826120bd565b9050919050565b6120f26120ed8261160f565b6120cf565b82525050565b60006121048286612099565b60208201915061211482856120e1565b6014820191506121248284612099565b60208201915081905094935050505056fea26469706673582212205bfe492197de94951f259460e48000b1aa2d9d2d1c43a66de35bcd452a3bf69964736f6c634300080a0033",
  "immutableReferences": {},
  "source": "// SPDX-License-Identifier: MIT\npragma solidity >=0.7.0 <0.9.0;\n\nimport \"./zombiehelper.sol\";\n\ncontract ZombieAttack is ZombieHelper {\n  uint randNonce = 0;\n  uint attackVictoryProbability = 70;\n\n  function randMod(uint _modulus) internal returns(uint) {\n    randNonce++;\n    return uint(keccak256(abi.encodePacked(block.timestamp, msg.sender, randNonce))) % _modulus;\n  }\n\n  function attack(uint _zombieId, uint _targetId) external onlyOwnerOf(_zombieId) {\n    Zombie storage myZombie = zombies[_zombieId];\n    Zombie storage enemyZombie = zombies[_targetId];\n    uint rand = randMod(100);\n    if (rand <= attackVictoryProbability) {\n      myZombie.winCount++;\n      myZombie.level++;\n      enemyZombie.lossCount++;\n      feedAndMultiply(_zombieId, enemyZombie.dna, \"zombie\");\n    } else {\n      myZombie.lossCount++;\n      enemyZombie.winCount++;\n      _triggerCooldown(myZombie);\n    }\n  }\n}\n",
  "sourcePath": "/Users/JordanSun/Desktop/CryptoZombies/src/contracts/zombieattack.sol",
  "compiler": {
    "name": "solc",
    "version": "0.8.10+commit.fc410830.Emscripten.clang"
  },
  "schemaVersion": "3.4.1",
  "updatedAt": "2021-11-29T21:55:43.703Z",
  "devdoc": {
    "kind": "dev",
    "methods": {
      "isOwner()": {
        "returns": {
          "_0": "true if `msg.sender` is the owner of the contract."
        }
      },
      "owner()": {
        "returns": {
          "_0": "the address of the owner."
        }
      },
      "renounceOwnership()": {
        "details": "Allows the current owner to relinquish control of the contract."
      },
      "transferOwnership(address)": {
        "details": "Allows the current owner to transfer control of the contract to a newOwner.",
        "params": {
          "newOwner": "The address to transfer ownership to."
        }
      }
    },
    "version": 1
  },
  "userdoc": {
    "kind": "user",
    "methods": {
      "renounceOwnership()": {
        "notice": "Renouncing to ownership will leave the contract without an owner. It will not be possible to call the functions with the `onlyOwner` modifier anymore."
      }
    },
    "version": 1
  }
}